{
	"contracts/PasswordVault.sol": {
		"PasswordVault": {
			"abi": [
				{
					"inputs": [],
					"stateMutability": "nonpayable",
					"type": "constructor"
				},
				{
					"anonymous": false,
					"inputs": [
						{
							"indexed": true,
							"internalType": "address",
							"name": "admin",
							"type": "address"
						}
					],
					"name": "AdminAdded",
					"type": "event"
				},
				{
					"anonymous": false,
					"inputs": [
						{
							"indexed": true,
							"internalType": "address",
							"name": "admin",
							"type": "address"
						}
					],
					"name": "AdminRemoved",
					"type": "event"
				},
				{
					"anonymous": false,
					"inputs": [
						{
							"indexed": true,
							"internalType": "address",
							"name": "user",
							"type": "address"
						},
						{
							"indexed": false,
							"internalType": "string",
							"name": "platform",
							"type": "string"
						}
					],
					"name": "CredentialDeleted",
					"type": "event"
				},
				{
					"anonymous": false,
					"inputs": [
						{
							"indexed": true,
							"internalType": "address",
							"name": "user",
							"type": "address"
						},
						{
							"indexed": false,
							"internalType": "string",
							"name": "platform",
							"type": "string"
						}
					],
					"name": "PasswordStored",
					"type": "event"
				},
				{
					"inputs": [
						{
							"internalType": "address",
							"name": "_admin",
							"type": "address"
						}
					],
					"name": "addAdmin",
					"outputs": [],
					"stateMutability": "nonpayable",
					"type": "function"
				},
				{
					"inputs": [
						{
							"internalType": "string",
							"name": "platform",
							"type": "string"
						}
					],
					"name": "deleteCredential",
					"outputs": [],
					"stateMutability": "nonpayable",
					"type": "function"
				},
				{
					"inputs": [
						{
							"internalType": "address",
							"name": "_admin",
							"type": "address"
						}
					],
					"name": "removeAdmin",
					"outputs": [],
					"stateMutability": "nonpayable",
					"type": "function"
				},
				{
					"inputs": [
						{
							"internalType": "string",
							"name": "platform",
							"type": "string"
						}
					],
					"name": "retrieveCredential",
					"outputs": [
						{
							"internalType": "string",
							"name": "",
							"type": "string"
						},
						{
							"internalType": "string",
							"name": "",
							"type": "string"
						}
					],
					"stateMutability": "view",
					"type": "function"
				},
				{
					"inputs": [
						{
							"internalType": "string",
							"name": "platform",
							"type": "string"
						},
						{
							"internalType": "string",
							"name": "username",
							"type": "string"
						},
						{
							"internalType": "string",
							"name": "encryptedPassword",
							"type": "string"
						}
					],
					"name": "storeCredential",
					"outputs": [],
					"stateMutability": "nonpayable",
					"type": "function"
				}
			],
			"devdoc": {
				"kind": "dev",
				"methods": {},
				"version": 1
			},
			"evm": {
				"assembly": "    /* \"contracts/PasswordVault.sol\":61:2855  contract PasswordVault {... */\n  mstore(0x40, 0x80)\n    /* \"contracts/PasswordVault.sol\":1229:1280  constructor() {... */\n  callvalue\n  dup1\n  iszero\n  tag_1\n  jumpi\n  0x00\n  dup1\n  revert\ntag_1:\n  pop\n    /* \"contracts/PasswordVault.sol\":1262:1272  msg.sender */\n  caller\n    /* \"contracts/PasswordVault.sol\":1254:1259  owner */\n  0x00\n  dup1\n    /* \"contracts/PasswordVault.sol\":1254:1272  owner = msg.sender */\n  0x0100\n  exp\n  dup2\n  sload\n  dup2\n  0xffffffffffffffffffffffffffffffffffffffff\n  mul\n  not\n  and\n  swap1\n  dup4\n  0xffffffffffffffffffffffffffffffffffffffff\n  and\n  mul\n  or\n  swap1\n  sstore\n  pop\n    /* \"contracts/PasswordVault.sol\":61:2855  contract PasswordVault {... */\n  dataSize(sub_0)\n  dup1\n  dataOffset(sub_0)\n  0x00\n  codecopy\n  0x00\n  return\nstop\n\nsub_0: assembly {\n        /* \"contracts/PasswordVault.sol\":61:2855  contract PasswordVault {... */\n      mstore(0x40, 0x80)\n      callvalue\n      dup1\n      iszero\n      tag_1\n      jumpi\n      0x00\n      dup1\n      revert\n    tag_1:\n      pop\n      jumpi(tag_2, lt(calldatasize, 0x04))\n      shr(0xe0, calldataload(0x00))\n      dup1\n      0x1785f53c\n      eq\n      tag_3\n      jumpi\n      dup1\n      0x22aa9e97\n      eq\n      tag_4\n      jumpi\n      dup1\n      0x59737bfc\n      eq\n      tag_5\n      jumpi\n      dup1\n      0x70480275\n      eq\n      tag_6\n      jumpi\n      dup1\n      0xf2e8c725\n      eq\n      tag_7\n      jumpi\n    tag_2:\n      0x00\n      dup1\n      revert\n        /* \"contracts/PasswordVault.sol\":1535:1666  function removeAdmin(address _admin) public onlyOwner {... */\n    tag_3:\n      tag_8\n      0x04\n      dup1\n      calldatasize\n      sub\n      dup2\n      add\n      swap1\n      tag_9\n      swap2\n      swap1\n      tag_10\n      jump\t// in\n    tag_9:\n      tag_11\n      jump\t// in\n    tag_8:\n      stop\n        /* \"contracts/PasswordVault.sol\":1721:2009  function storeCredential(... */\n    tag_4:\n      tag_12\n      0x04\n      dup1\n      calldatasize\n      sub\n      dup2\n      add\n      swap1\n      tag_13\n      swap2\n      swap1\n      tag_14\n      jump\t// in\n    tag_13:\n      tag_15\n      jump\t// in\n    tag_12:\n      stop\n        /* \"contracts/PasswordVault.sol\":2067:2436  function retrieveCredential(string memory platform) public view returns (string memory, string memory) {... */\n    tag_5:\n      tag_16\n      0x04\n      dup1\n      calldatasize\n      sub\n      dup2\n      add\n      swap1\n      tag_17\n      swap2\n      swap1\n      tag_18\n      jump\t// in\n    tag_17:\n      tag_19\n      jump\t// in\n    tag_16:\n      mload(0x40)\n      tag_20\n      swap3\n      swap2\n      swap1\n      tag_21\n      jump\t// in\n    tag_20:\n      mload(0x40)\n      dup1\n      swap2\n      sub\n      swap1\n      return\n        /* \"contracts/PasswordVault.sol\":1342:1467  function addAdmin(address _admin) public onlyOwner {... */\n    tag_6:\n      tag_22\n      0x04\n      dup1\n      calldatasize\n      sub\n      dup2\n      add\n      swap1\n      tag_23\n      swap2\n      swap1\n      tag_10\n      jump\t// in\n    tag_23:\n      tag_24\n      jump\t// in\n    tag_22:\n      stop\n        /* \"contracts/PasswordVault.sol\":2523:2852  function deleteCredential(string memory platform) public onlyAdmin {... */\n    tag_7:\n      tag_25\n      0x04\n      dup1\n      calldatasize\n      sub\n      dup2\n      add\n      swap1\n      tag_26\n      swap2\n      swap1\n      tag_18\n      jump\t// in\n    tag_26:\n      tag_27\n      jump\t// in\n    tag_25:\n      stop\n        /* \"contracts/PasswordVault.sol\":1535:1666  function removeAdmin(address _admin) public onlyOwner {... */\n    tag_11:\n        /* \"contracts/PasswordVault.sol\":888:893  owner */\n      0x00\n      dup1\n      sload\n      swap1\n      0x0100\n      exp\n      swap1\n      div\n      0xffffffffffffffffffffffffffffffffffffffff\n      and\n        /* \"contracts/PasswordVault.sol\":874:893  msg.sender == owner */\n      0xffffffffffffffffffffffffffffffffffffffff\n      and\n        /* \"contracts/PasswordVault.sol\":874:884  msg.sender */\n      caller\n        /* \"contracts/PasswordVault.sol\":874:893  msg.sender == owner */\n      0xffffffffffffffffffffffffffffffffffffffff\n      and\n      eq\n        /* \"contracts/PasswordVault.sol\":866:940  require(msg.sender == owner, \"Only contract owner can call this function\") */\n      tag_29\n      jumpi\n      mload(0x40)\n      0x08c379a000000000000000000000000000000000000000000000000000000000\n      dup2\n      mstore\n      0x04\n      add\n      tag_30\n      swap1\n      tag_31\n      jump\t// in\n    tag_30:\n      mload(0x40)\n      dup1\n      swap2\n      sub\n      swap1\n      revert\n    tag_29:\n        /* \"contracts/PasswordVault.sol\":1617:1622  false */\n      0x00\n        /* \"contracts/PasswordVault.sol\":1600:1606  admins */\n      0x02\n        /* \"contracts/PasswordVault.sol\":1600:1614  admins[_admin] */\n      0x00\n        /* \"contracts/PasswordVault.sol\":1607:1613  _admin */\n      dup4\n        /* \"contracts/PasswordVault.sol\":1600:1614  admins[_admin] */\n      0xffffffffffffffffffffffffffffffffffffffff\n      and\n      0xffffffffffffffffffffffffffffffffffffffff\n      and\n      dup2\n      mstore\n      0x20\n      add\n      swap1\n      dup2\n      mstore\n      0x20\n      add\n      0x00\n      keccak256\n      0x00\n        /* \"contracts/PasswordVault.sol\":1600:1622  admins[_admin] = false */\n      0x0100\n      exp\n      dup2\n      sload\n      dup2\n      0xff\n      mul\n      not\n      and\n      swap1\n      dup4\n      iszero\n      iszero\n      mul\n      or\n      swap1\n      sstore\n      pop\n        /* \"contracts/PasswordVault.sol\":1651:1657  _admin */\n      dup1\n        /* \"contracts/PasswordVault.sol\":1638:1658  AdminRemoved(_admin) */\n      0xffffffffffffffffffffffffffffffffffffffff\n      and\n      0xa3b62bc36326052d97ea62d63c3d60308ed4c3ea8ac079dd8499f1e9c4f80c0f\n      mload(0x40)\n      mload(0x40)\n      dup1\n      swap2\n      sub\n      swap1\n      log2\n        /* \"contracts/PasswordVault.sol\":1535:1666  function removeAdmin(address _admin) public onlyOwner {... */\n      pop\n      jump\t// out\n        /* \"contracts/PasswordVault.sol\":1721:2009  function storeCredential(... */\n    tag_15:\n        /* \"contracts/PasswordVault.sol\":1910:1949  Credential(username, encryptedPassword) */\n      mload(0x40)\n      dup1\n      0x40\n      add\n      0x40\n      mstore\n      dup1\n        /* \"contracts/PasswordVault.sol\":1921:1929  username */\n      dup4\n        /* \"contracts/PasswordVault.sol\":1910:1949  Credential(username, encryptedPassword) */\n      dup2\n      mstore\n      0x20\n      add\n        /* \"contracts/PasswordVault.sol\":1931:1948  encryptedPassword */\n      dup3\n        /* \"contracts/PasswordVault.sol\":1910:1949  Credential(username, encryptedPassword) */\n      dup2\n      mstore\n      pop\n        /* \"contracts/PasswordVault.sol\":1879:1885  vaults */\n      0x01\n        /* \"contracts/PasswordVault.sol\":1879:1897  vaults[msg.sender] */\n      0x00\n        /* \"contracts/PasswordVault.sol\":1886:1896  msg.sender */\n      caller\n        /* \"contracts/PasswordVault.sol\":1879:1897  vaults[msg.sender] */\n      0xffffffffffffffffffffffffffffffffffffffff\n      and\n      0xffffffffffffffffffffffffffffffffffffffff\n      and\n      dup2\n      mstore\n      0x20\n      add\n      swap1\n      dup2\n      mstore\n      0x20\n      add\n      0x00\n      keccak256\n        /* \"contracts/PasswordVault.sol\":1898:1906  platform */\n      dup5\n        /* \"contracts/PasswordVault.sol\":1879:1907  vaults[msg.sender][platform] */\n      mload(0x40)\n      tag_34\n      swap2\n      swap1\n      tag_35\n      jump\t// in\n    tag_34:\n      swap1\n      dup2\n      mstore\n      0x20\n      add\n      mload(0x40)\n      dup1\n      swap2\n      sub\n      swap1\n      keccak256\n        /* \"contracts/PasswordVault.sol\":1879:1949  vaults[msg.sender][platform] = Credential(username, encryptedPassword) */\n      0x00\n      dup3\n      add\n      mload\n      dup2\n      0x00\n      add\n      swap1\n      dup2\n      tag_36\n      swap2\n      swap1\n      tag_37\n      jump\t// in\n    tag_36:\n      pop\n      0x20\n      dup3\n      add\n      mload\n      dup2\n      0x01\n      add\n      swap1\n      dup2\n      tag_38\n      swap2\n      swap1\n      tag_37\n      jump\t// in\n    tag_38:\n      pop\n      swap1\n      pop\n      pop\n        /* \"contracts/PasswordVault.sol\":1980:1990  msg.sender */\n      caller\n        /* \"contracts/PasswordVault.sol\":1965:2001  PasswordStored(msg.sender, platform) */\n      0xffffffffffffffffffffffffffffffffffffffff\n      and\n      0x750313e45caf40b2079d26ce7a9f02d1c0797ec7389dfc8755a16680cf1c2006\n        /* \"contracts/PasswordVault.sol\":1992:2000  platform */\n      dup5\n        /* \"contracts/PasswordVault.sol\":1965:2001  PasswordStored(msg.sender, platform) */\n      mload(0x40)\n      tag_39\n      swap2\n      swap1\n      tag_40\n      jump\t// in\n    tag_39:\n      mload(0x40)\n      dup1\n      swap2\n      sub\n      swap1\n      log2\n        /* \"contracts/PasswordVault.sol\":1721:2009  function storeCredential(... */\n      pop\n      pop\n      pop\n      jump\t// out\n        /* \"contracts/PasswordVault.sol\":2067:2436  function retrieveCredential(string memory platform) public view returns (string memory, string memory) {... */\n    tag_19:\n        /* \"contracts/PasswordVault.sol\":2140:2153  string memory */\n      0x60\n        /* \"contracts/PasswordVault.sol\":2155:2168  string memory */\n      dup1\n        /* \"contracts/PasswordVault.sol\":2243:2244  0 */\n      0x00\n        /* \"contracts/PasswordVault.sol\":2195:2201  vaults */\n      0x01\n        /* \"contracts/PasswordVault.sol\":2195:2213  vaults[msg.sender] */\n      0x00\n        /* \"contracts/PasswordVault.sol\":2202:2212  msg.sender */\n      caller\n        /* \"contracts/PasswordVault.sol\":2195:2213  vaults[msg.sender] */\n      0xffffffffffffffffffffffffffffffffffffffff\n      and\n      0xffffffffffffffffffffffffffffffffffffffff\n      and\n      dup2\n      mstore\n      0x20\n      add\n      swap1\n      dup2\n      mstore\n      0x20\n      add\n      0x00\n      keccak256\n        /* \"contracts/PasswordVault.sol\":2214:2222  platform */\n      dup5\n        /* \"contracts/PasswordVault.sol\":2195:2223  vaults[msg.sender][platform] */\n      mload(0x40)\n      tag_42\n      swap2\n      swap1\n      tag_35\n      jump\t// in\n    tag_42:\n      swap1\n      dup2\n      mstore\n      0x20\n      add\n      mload(0x40)\n      dup1\n      swap2\n      sub\n      swap1\n      keccak256\n        /* \"contracts/PasswordVault.sol\":2195:2232  vaults[msg.sender][platform].username */\n      0x00\n      add\n        /* \"contracts/PasswordVault.sol\":2189:2240  bytes(vaults[msg.sender][platform].username).length */\n      dup1\n      sload\n      tag_43\n      swap1\n      tag_44\n      jump\t// in\n    tag_43:\n      swap1\n      pop\n        /* \"contracts/PasswordVault.sol\":2189:2244  bytes(vaults[msg.sender][platform].username).length > 0 */\n      gt\n        /* \"contracts/PasswordVault.sol\":2181:2287  require(bytes(vaults[msg.sender][platform].username).length > 0, \"No credentials found for this platform\") */\n      tag_45\n      jumpi\n      mload(0x40)\n      0x08c379a000000000000000000000000000000000000000000000000000000000\n      dup2\n      mstore\n      0x04\n      add\n      tag_46\n      swap1\n      tag_47\n      jump\t// in\n    tag_46:\n      mload(0x40)\n      dup1\n      swap2\n      sub\n      swap1\n      revert\n    tag_45:\n        /* \"contracts/PasswordVault.sol\":2300:2328  Credential memory credential */\n      0x00\n        /* \"contracts/PasswordVault.sol\":2331:2337  vaults */\n      0x01\n        /* \"contracts/PasswordVault.sol\":2331:2349  vaults[msg.sender] */\n      0x00\n        /* \"contracts/PasswordVault.sol\":2338:2348  msg.sender */\n      caller\n        /* \"contracts/PasswordVault.sol\":2331:2349  vaults[msg.sender] */\n      0xffffffffffffffffffffffffffffffffffffffff\n      and\n      0xffffffffffffffffffffffffffffffffffffffff\n      and\n      dup2\n      mstore\n      0x20\n      add\n      swap1\n      dup2\n      mstore\n      0x20\n      add\n      0x00\n      keccak256\n        /* \"contracts/PasswordVault.sol\":2350:2358  platform */\n      dup5\n        /* \"contracts/PasswordVault.sol\":2331:2359  vaults[msg.sender][platform] */\n      mload(0x40)\n      tag_48\n      swap2\n      swap1\n      tag_35\n      jump\t// in\n    tag_48:\n      swap1\n      dup2\n      mstore\n      0x20\n      add\n      mload(0x40)\n      dup1\n      swap2\n      sub\n      swap1\n      keccak256\n        /* \"contracts/PasswordVault.sol\":2300:2359  Credential memory credential = vaults[msg.sender][platform] */\n      mload(0x40)\n      dup1\n      0x40\n      add\n      0x40\n      mstore\n      swap1\n      dup2\n      0x00\n      dup3\n      add\n      dup1\n      sload\n      tag_49\n      swap1\n      tag_44\n      jump\t// in\n    tag_49:\n      dup1\n      0x1f\n      add\n      0x20\n      dup1\n      swap2\n      div\n      mul\n      0x20\n      add\n      mload(0x40)\n      swap1\n      dup2\n      add\n      0x40\n      mstore\n      dup1\n      swap3\n      swap2\n      swap1\n      dup2\n      dup2\n      mstore\n      0x20\n      add\n      dup3\n      dup1\n      sload\n      tag_50\n      swap1\n      tag_44\n      jump\t// in\n    tag_50:\n      dup1\n      iszero\n      tag_51\n      jumpi\n      dup1\n      0x1f\n      lt\n      tag_52\n      jumpi\n      0x0100\n      dup1\n      dup4\n      sload\n      div\n      mul\n      dup4\n      mstore\n      swap2\n      0x20\n      add\n      swap2\n      jump(tag_51)\n    tag_52:\n      dup3\n      add\n      swap2\n      swap1\n      0x00\n      mstore\n      keccak256(0x00, 0x20)\n      swap1\n    tag_53:\n      dup2\n      sload\n      dup2\n      mstore\n      swap1\n      0x01\n      add\n      swap1\n      0x20\n      add\n      dup1\n      dup4\n      gt\n      tag_53\n      jumpi\n      dup3\n      swap1\n      sub\n      0x1f\n      and\n      dup3\n      add\n      swap2\n    tag_51:\n      pop\n      pop\n      pop\n      pop\n      pop\n      dup2\n      mstore\n      0x20\n      add\n      0x01\n      dup3\n      add\n      dup1\n      sload\n      tag_54\n      swap1\n      tag_44\n      jump\t// in\n    tag_54:\n      dup1\n      0x1f\n      add\n      0x20\n      dup1\n      swap2\n      div\n      mul\n      0x20\n      add\n      mload(0x40)\n      swap1\n      dup2\n      add\n      0x40\n      mstore\n      dup1\n      swap3\n      swap2\n      swap1\n      dup2\n      dup2\n      mstore\n      0x20\n      add\n      dup3\n      dup1\n      sload\n      tag_55\n      swap1\n      tag_44\n      jump\t// in\n    tag_55:\n      dup1\n      iszero\n      tag_56\n      jumpi\n      dup1\n      0x1f\n      lt\n      tag_57\n      jumpi\n      0x0100\n      dup1\n      dup4\n      sload\n      div\n      mul\n      dup4\n      mstore\n      swap2\n      0x20\n      add\n      swap2\n      jump(tag_56)\n    tag_57:\n      dup3\n      add\n      swap2\n      swap1\n      0x00\n      mstore\n      keccak256(0x00, 0x20)\n      swap1\n    tag_58:\n      dup2\n      sload\n      dup2\n      mstore\n      swap1\n      0x01\n      add\n      swap1\n      0x20\n      add\n      dup1\n      dup4\n      gt\n      tag_58\n      jumpi\n      dup3\n      swap1\n      sub\n      0x1f\n      and\n      dup3\n      add\n      swap2\n    tag_56:\n      pop\n      pop\n      pop\n      pop\n      pop\n      dup2\n      mstore\n      pop\n      pop\n      swap1\n      pop\n        /* \"contracts/PasswordVault.sol\":2378:2388  credential */\n      dup1\n        /* \"contracts/PasswordVault.sol\":2378:2397  credential.username */\n      0x00\n      add\n      mload\n        /* \"contracts/PasswordVault.sol\":2399:2409  credential */\n      dup2\n        /* \"contracts/PasswordVault.sol\":2399:2427  credential.encryptedPassword */\n      0x20\n      add\n      mload\n        /* \"contracts/PasswordVault.sol\":2370:2428  return (credential.username, credential.encryptedPassword) */\n      swap3\n      pop\n      swap3\n      pop\n      pop\n        /* \"contracts/PasswordVault.sol\":2067:2436  function retrieveCredential(string memory platform) public view returns (string memory, string memory) {... */\n      swap2\n      pop\n      swap2\n      jump\t// out\n        /* \"contracts/PasswordVault.sol\":1342:1467  function addAdmin(address _admin) public onlyOwner {... */\n    tag_24:\n        /* \"contracts/PasswordVault.sol\":888:893  owner */\n      0x00\n      dup1\n      sload\n      swap1\n      0x0100\n      exp\n      swap1\n      div\n      0xffffffffffffffffffffffffffffffffffffffff\n      and\n        /* \"contracts/PasswordVault.sol\":874:893  msg.sender == owner */\n      0xffffffffffffffffffffffffffffffffffffffff\n      and\n        /* \"contracts/PasswordVault.sol\":874:884  msg.sender */\n      caller\n        /* \"contracts/PasswordVault.sol\":874:893  msg.sender == owner */\n      0xffffffffffffffffffffffffffffffffffffffff\n      and\n      eq\n        /* \"contracts/PasswordVault.sol\":866:940  require(msg.sender == owner, \"Only contract owner can call this function\") */\n      tag_60\n      jumpi\n      mload(0x40)\n      0x08c379a000000000000000000000000000000000000000000000000000000000\n      dup2\n      mstore\n      0x04\n      add\n      tag_61\n      swap1\n      tag_31\n      jump\t// in\n    tag_61:\n      mload(0x40)\n      dup1\n      swap2\n      sub\n      swap1\n      revert\n    tag_60:\n        /* \"contracts/PasswordVault.sol\":1421:1425  true */\n      0x01\n        /* \"contracts/PasswordVault.sol\":1404:1410  admins */\n      0x02\n        /* \"contracts/PasswordVault.sol\":1404:1418  admins[_admin] */\n      0x00\n        /* \"contracts/PasswordVault.sol\":1411:1417  _admin */\n      dup4\n        /* \"contracts/PasswordVault.sol\":1404:1418  admins[_admin] */\n      0xffffffffffffffffffffffffffffffffffffffff\n      and\n      0xffffffffffffffffffffffffffffffffffffffff\n      and\n      dup2\n      mstore\n      0x20\n      add\n      swap1\n      dup2\n      mstore\n      0x20\n      add\n      0x00\n      keccak256\n      0x00\n        /* \"contracts/PasswordVault.sol\":1404:1425  admins[_admin] = true */\n      0x0100\n      exp\n      dup2\n      sload\n      dup2\n      0xff\n      mul\n      not\n      and\n      swap1\n      dup4\n      iszero\n      iszero\n      mul\n      or\n      swap1\n      sstore\n      pop\n        /* \"contracts/PasswordVault.sol\":1452:1458  _admin */\n      dup1\n        /* \"contracts/PasswordVault.sol\":1441:1459  AdminAdded(_admin) */\n      0xffffffffffffffffffffffffffffffffffffffff\n      and\n      0x44d6d25963f097ad14f29f06854a01f575648a1ef82f30e562ccd3889717e339\n      mload(0x40)\n      mload(0x40)\n      dup1\n      swap2\n      sub\n      swap1\n      log2\n        /* \"contracts/PasswordVault.sol\":1342:1467  function addAdmin(address _admin) public onlyOwner {... */\n      pop\n      jump\t// out\n        /* \"contracts/PasswordVault.sol\":2523:2852  function deleteCredential(string memory platform) public onlyAdmin {... */\n    tag_27:\n        /* \"contracts/PasswordVault.sol\":1055:1061  admins */\n      0x02\n        /* \"contracts/PasswordVault.sol\":1055:1073  admins[msg.sender] */\n      0x00\n        /* \"contracts/PasswordVault.sol\":1062:1072  msg.sender */\n      caller\n        /* \"contracts/PasswordVault.sol\":1055:1073  admins[msg.sender] */\n      0xffffffffffffffffffffffffffffffffffffffff\n      and\n      0xffffffffffffffffffffffffffffffffffffffff\n      and\n      dup2\n      mstore\n      0x20\n      add\n      swap1\n      dup2\n      mstore\n      0x20\n      add\n      0x00\n      keccak256\n      0x00\n      swap1\n      sload\n      swap1\n      0x0100\n      exp\n      swap1\n      div\n      0xff\n      and\n        /* \"contracts/PasswordVault.sol\":1055:1096  admins[msg.sender] || msg.sender == owner */\n      dup1\n      tag_64\n      jumpi\n      pop\n        /* \"contracts/PasswordVault.sol\":1091:1096  owner */\n      0x00\n      dup1\n      sload\n      swap1\n      0x0100\n      exp\n      swap1\n      div\n      0xffffffffffffffffffffffffffffffffffffffff\n      and\n        /* \"contracts/PasswordVault.sol\":1077:1096  msg.sender == owner */\n      0xffffffffffffffffffffffffffffffffffffffff\n      and\n        /* \"contracts/PasswordVault.sol\":1077:1087  msg.sender */\n      caller\n        /* \"contracts/PasswordVault.sol\":1077:1096  msg.sender == owner */\n      0xffffffffffffffffffffffffffffffffffffffff\n      and\n      eq\n        /* \"contracts/PasswordVault.sol\":1055:1096  admins[msg.sender] || msg.sender == owner */\n    tag_64:\n        /* \"contracts/PasswordVault.sol\":1047:1144  require(admins[msg.sender] || msg.sender == owner, \"Only admins or owner can call this function\") */\n      tag_65\n      jumpi\n      mload(0x40)\n      0x08c379a000000000000000000000000000000000000000000000000000000000\n      dup2\n      mstore\n      0x04\n      add\n      tag_66\n      swap1\n      tag_67\n      jump\t// in\n    tag_66:\n      mload(0x40)\n      dup1\n      swap2\n      sub\n      swap1\n      revert\n    tag_65:\n        /* \"contracts/PasswordVault.sol\":2663:2664  0 */\n      0x00\n        /* \"contracts/PasswordVault.sol\":2615:2621  vaults */\n      0x01\n        /* \"contracts/PasswordVault.sol\":2615:2633  vaults[msg.sender] */\n      0x00\n        /* \"contracts/PasswordVault.sol\":2622:2632  msg.sender */\n      caller\n        /* \"contracts/PasswordVault.sol\":2615:2633  vaults[msg.sender] */\n      0xffffffffffffffffffffffffffffffffffffffff\n      and\n      0xffffffffffffffffffffffffffffffffffffffff\n      and\n      dup2\n      mstore\n      0x20\n      add\n      swap1\n      dup2\n      mstore\n      0x20\n      add\n      0x00\n      keccak256\n        /* \"contracts/PasswordVault.sol\":2634:2642  platform */\n      dup3\n        /* \"contracts/PasswordVault.sol\":2615:2643  vaults[msg.sender][platform] */\n      mload(0x40)\n      tag_69\n      swap2\n      swap1\n      tag_35\n      jump\t// in\n    tag_69:\n      swap1\n      dup2\n      mstore\n      0x20\n      add\n      mload(0x40)\n      dup1\n      swap2\n      sub\n      swap1\n      keccak256\n        /* \"contracts/PasswordVault.sol\":2615:2652  vaults[msg.sender][platform].username */\n      0x00\n      add\n        /* \"contracts/PasswordVault.sol\":2609:2660  bytes(vaults[msg.sender][platform].username).length */\n      dup1\n      sload\n      tag_70\n      swap1\n      tag_44\n      jump\t// in\n    tag_70:\n      swap1\n      pop\n        /* \"contracts/PasswordVault.sol\":2609:2664  bytes(vaults[msg.sender][platform].username).length > 0 */\n      gt\n        /* \"contracts/PasswordVault.sol\":2601:2707  require(bytes(vaults[msg.sender][platform].username).length > 0, \"No credentials found for this platform\") */\n      tag_71\n      jumpi\n      mload(0x40)\n      0x08c379a000000000000000000000000000000000000000000000000000000000\n      dup2\n      mstore\n      0x04\n      add\n      tag_72\n      swap1\n      tag_47\n      jump\t// in\n    tag_72:\n      mload(0x40)\n      dup1\n      swap2\n      sub\n      swap1\n      revert\n    tag_71:\n        /* \"contracts/PasswordVault.sol\":2727:2733  vaults */\n      0x01\n        /* \"contracts/PasswordVault.sol\":2727:2745  vaults[msg.sender] */\n      0x00\n        /* \"contracts/PasswordVault.sol\":2734:2744  msg.sender */\n      caller\n        /* \"contracts/PasswordVault.sol\":2727:2745  vaults[msg.sender] */\n      0xffffffffffffffffffffffffffffffffffffffff\n      and\n      0xffffffffffffffffffffffffffffffffffffffff\n      and\n      dup2\n      mstore\n      0x20\n      add\n      swap1\n      dup2\n      mstore\n      0x20\n      add\n      0x00\n      keccak256\n        /* \"contracts/PasswordVault.sol\":2746:2754  platform */\n      dup2\n        /* \"contracts/PasswordVault.sol\":2727:2755  vaults[msg.sender][platform] */\n      mload(0x40)\n      tag_73\n      swap2\n      swap1\n      tag_35\n      jump\t// in\n    tag_73:\n      swap1\n      dup2\n      mstore\n      0x20\n      add\n      mload(0x40)\n      dup1\n      swap2\n      sub\n      swap1\n      keccak256\n      0x00\n        /* \"contracts/PasswordVault.sol\":2720:2755  delete vaults[msg.sender][platform] */\n      dup1\n      dup3\n      add\n      0x00\n      tag_74\n      swap2\n      swap1\n      tag_75\n      jump\t// in\n    tag_74:\n      0x01\n      dup3\n      add\n      0x00\n      tag_76\n      swap2\n      swap1\n      tag_75\n      jump\t// in\n    tag_76:\n      pop\n      pop\n        /* \"contracts/PasswordVault.sol\":2823:2833  msg.sender */\n      caller\n        /* \"contracts/PasswordVault.sol\":2805:2844  CredentialDeleted(msg.sender, platform) */\n      0xffffffffffffffffffffffffffffffffffffffff\n      and\n      0x62fa08023f4fcd46901d0efc1ee730d9fca49a3bfd61332d5f37946a80e41869\n        /* \"contracts/PasswordVault.sol\":2835:2843  platform */\n      dup3\n        /* \"contracts/PasswordVault.sol\":2805:2844  CredentialDeleted(msg.sender, platform) */\n      mload(0x40)\n      tag_77\n      swap2\n      swap1\n      tag_40\n      jump\t// in\n    tag_77:\n      mload(0x40)\n      dup1\n      swap2\n      sub\n      swap1\n      log2\n        /* \"contracts/PasswordVault.sol\":2523:2852  function deleteCredential(string memory platform) public onlyAdmin {... */\n      pop\n      jump\t// out\n    tag_75:\n      pop\n      dup1\n      sload\n      tag_78\n      swap1\n      tag_44\n      jump\t// in\n    tag_78:\n      0x00\n      dup3\n      sstore\n      dup1\n      0x1f\n      lt\n      tag_80\n      jumpi\n      pop\n      jump(tag_79)\n    tag_80:\n      0x1f\n      add\n      0x20\n      swap1\n      div\n      swap1\n      0x00\n      mstore\n      keccak256(0x00, 0x20)\n      swap1\n      dup2\n      add\n      swap1\n      tag_81\n      swap2\n      swap1\n      tag_82\n      jump\t// in\n    tag_81:\n    tag_79:\n      pop\n      jump\t// out\n    tag_82:\n    tag_83:\n      dup1\n      dup3\n      gt\n      iszero\n      tag_84\n      jumpi\n      0x00\n      dup2\n      0x00\n      swap1\n      sstore\n      pop\n      0x01\n      add\n      jump(tag_83)\n    tag_84:\n      pop\n      swap1\n      jump\t// out\n        /* \"#utility.yul\":7:82   */\n    tag_85:\n        /* \"#utility.yul\":40:46   */\n      0x00\n        /* \"#utility.yul\":73:75   */\n      0x40\n        /* \"#utility.yul\":67:76   */\n      mload\n        /* \"#utility.yul\":57:76   */\n      swap1\n      pop\n        /* \"#utility.yul\":7:82   */\n      swap1\n      jump\t// out\n        /* \"#utility.yul\":88:205   */\n    tag_86:\n        /* \"#utility.yul\":197:198   */\n      0x00\n        /* \"#utility.yul\":194:195   */\n      dup1\n        /* \"#utility.yul\":187:199   */\n      revert\n        /* \"#utility.yul\":211:328   */\n    tag_87:\n        /* \"#utility.yul\":320:321   */\n      0x00\n        /* \"#utility.yul\":317:318   */\n      dup1\n        /* \"#utility.yul\":310:322   */\n      revert\n        /* \"#utility.yul\":334:460   */\n    tag_88:\n        /* \"#utility.yul\":371:378   */\n      0x00\n        /* \"#utility.yul\":411:453   */\n      0xffffffffffffffffffffffffffffffffffffffff\n        /* \"#utility.yul\":404:409   */\n      dup3\n        /* \"#utility.yul\":400:454   */\n      and\n        /* \"#utility.yul\":389:454   */\n      swap1\n      pop\n        /* \"#utility.yul\":334:460   */\n      swap2\n      swap1\n      pop\n      jump\t// out\n        /* \"#utility.yul\":466:562   */\n    tag_89:\n        /* \"#utility.yul\":503:510   */\n      0x00\n        /* \"#utility.yul\":532:556   */\n      tag_137\n        /* \"#utility.yul\":550:555   */\n      dup3\n        /* \"#utility.yul\":532:556   */\n      tag_88\n      jump\t// in\n    tag_137:\n        /* \"#utility.yul\":521:556   */\n      swap1\n      pop\n        /* \"#utility.yul\":466:562   */\n      swap2\n      swap1\n      pop\n      jump\t// out\n        /* \"#utility.yul\":568:690   */\n    tag_90:\n        /* \"#utility.yul\":641:665   */\n      tag_139\n        /* \"#utility.yul\":659:664   */\n      dup2\n        /* \"#utility.yul\":641:665   */\n      tag_89\n      jump\t// in\n    tag_139:\n        /* \"#utility.yul\":634:639   */\n      dup2\n        /* \"#utility.yul\":631:666   */\n      eq\n        /* \"#utility.yul\":621:684   */\n      tag_140\n      jumpi\n        /* \"#utility.yul\":680:681   */\n      0x00\n        /* \"#utility.yul\":677:678   */\n      dup1\n        /* \"#utility.yul\":670:682   */\n      revert\n        /* \"#utility.yul\":621:684   */\n    tag_140:\n        /* \"#utility.yul\":568:690   */\n      pop\n      jump\t// out\n        /* \"#utility.yul\":696:835   */\n    tag_91:\n        /* \"#utility.yul\":742:747   */\n      0x00\n        /* \"#utility.yul\":780:786   */\n      dup2\n        /* \"#utility.yul\":767:787   */\n      calldataload\n        /* \"#utility.yul\":758:787   */\n      swap1\n      pop\n        /* \"#utility.yul\":796:829   */\n      tag_142\n        /* \"#utility.yul\":823:828   */\n      dup2\n        /* \"#utility.yul\":796:829   */\n      tag_90\n      jump\t// in\n    tag_142:\n        /* \"#utility.yul\":696:835   */\n      swap3\n      swap2\n      pop\n      pop\n      jump\t// out\n        /* \"#utility.yul\":841:1170   */\n    tag_10:\n        /* \"#utility.yul\":900:906   */\n      0x00\n        /* \"#utility.yul\":949:951   */\n      0x20\n        /* \"#utility.yul\":937:946   */\n      dup3\n        /* \"#utility.yul\":928:935   */\n      dup5\n        /* \"#utility.yul\":924:947   */\n      sub\n        /* \"#utility.yul\":920:952   */\n      slt\n        /* \"#utility.yul\":917:1036   */\n      iszero\n      tag_144\n      jumpi\n        /* \"#utility.yul\":955:1034   */\n      tag_145\n      tag_86\n      jump\t// in\n    tag_145:\n        /* \"#utility.yul\":917:1036   */\n    tag_144:\n        /* \"#utility.yul\":1075:1076   */\n      0x00\n        /* \"#utility.yul\":1100:1153   */\n      tag_146\n        /* \"#utility.yul\":1145:1152   */\n      dup5\n        /* \"#utility.yul\":1136:1142   */\n      dup3\n        /* \"#utility.yul\":1125:1134   */\n      dup6\n        /* \"#utility.yul\":1121:1143   */\n      add\n        /* \"#utility.yul\":1100:1153   */\n      tag_91\n      jump\t// in\n    tag_146:\n        /* \"#utility.yul\":1090:1153   */\n      swap2\n      pop\n        /* \"#utility.yul\":1046:1163   */\n      pop\n        /* \"#utility.yul\":841:1170   */\n      swap3\n      swap2\n      pop\n      pop\n      jump\t// out\n        /* \"#utility.yul\":1176:1293   */\n    tag_92:\n        /* \"#utility.yul\":1285:1286   */\n      0x00\n        /* \"#utility.yul\":1282:1283   */\n      dup1\n        /* \"#utility.yul\":1275:1287   */\n      revert\n        /* \"#utility.yul\":1299:1416   */\n    tag_93:\n        /* \"#utility.yul\":1408:1409   */\n      0x00\n        /* \"#utility.yul\":1405:1406   */\n      dup1\n        /* \"#utility.yul\":1398:1410   */\n      revert\n        /* \"#utility.yul\":1422:1524   */\n    tag_94:\n        /* \"#utility.yul\":1463:1469   */\n      0x00\n        /* \"#utility.yul\":1514:1516   */\n      0x1f\n        /* \"#utility.yul\":1510:1517   */\n      not\n        /* \"#utility.yul\":1505:1507   */\n      0x1f\n        /* \"#utility.yul\":1498:1503   */\n      dup4\n        /* \"#utility.yul\":1494:1508   */\n      add\n        /* \"#utility.yul\":1490:1518   */\n      and\n        /* \"#utility.yul\":1480:1518   */\n      swap1\n      pop\n        /* \"#utility.yul\":1422:1524   */\n      swap2\n      swap1\n      pop\n      jump\t// out\n        /* \"#utility.yul\":1530:1710   */\n    tag_95:\n        /* \"#utility.yul\":1578:1655   */\n      0x4e487b7100000000000000000000000000000000000000000000000000000000\n        /* \"#utility.yul\":1575:1576   */\n      0x00\n        /* \"#utility.yul\":1568:1656   */\n      mstore\n        /* \"#utility.yul\":1675:1679   */\n      0x41\n        /* \"#utility.yul\":1672:1673   */\n      0x04\n        /* \"#utility.yul\":1665:1680   */\n      mstore\n        /* \"#utility.yul\":1699:1703   */\n      0x24\n        /* \"#utility.yul\":1696:1697   */\n      0x00\n        /* \"#utility.yul\":1689:1704   */\n      revert\n        /* \"#utility.yul\":1716:1997   */\n    tag_96:\n        /* \"#utility.yul\":1799:1826   */\n      tag_152\n        /* \"#utility.yul\":1821:1825   */\n      dup3\n        /* \"#utility.yul\":1799:1826   */\n      tag_94\n      jump\t// in\n    tag_152:\n        /* \"#utility.yul\":1791:1797   */\n      dup2\n        /* \"#utility.yul\":1787:1827   */\n      add\n        /* \"#utility.yul\":1929:1935   */\n      dup2\n        /* \"#utility.yul\":1917:1927   */\n      dup2\n        /* \"#utility.yul\":1914:1936   */\n      lt\n        /* \"#utility.yul\":1893:1911   */\n      0xffffffffffffffff\n        /* \"#utility.yul\":1881:1891   */\n      dup3\n        /* \"#utility.yul\":1878:1912   */\n      gt\n        /* \"#utility.yul\":1875:1937   */\n      or\n        /* \"#utility.yul\":1872:1960   */\n      iszero\n      tag_153\n      jumpi\n        /* \"#utility.yul\":1940:1958   */\n      tag_154\n      tag_95\n      jump\t// in\n    tag_154:\n        /* \"#utility.yul\":1872:1960   */\n    tag_153:\n        /* \"#utility.yul\":1980:1990   */\n      dup1\n        /* \"#utility.yul\":1976:1978   */\n      0x40\n        /* \"#utility.yul\":1969:1991   */\n      mstore\n        /* \"#utility.yul\":1759:1997   */\n      pop\n        /* \"#utility.yul\":1716:1997   */\n      pop\n      pop\n      jump\t// out\n        /* \"#utility.yul\":2003:2132   */\n    tag_97:\n        /* \"#utility.yul\":2037:2043   */\n      0x00\n        /* \"#utility.yul\":2064:2084   */\n      tag_156\n      tag_85\n      jump\t// in\n    tag_156:\n        /* \"#utility.yul\":2054:2084   */\n      swap1\n      pop\n        /* \"#utility.yul\":2093:2126   */\n      tag_157\n        /* \"#utility.yul\":2121:2125   */\n      dup3\n        /* \"#utility.yul\":2113:2119   */\n      dup3\n        /* \"#utility.yul\":2093:2126   */\n      tag_96\n      jump\t// in\n    tag_157:\n        /* \"#utility.yul\":2003:2132   */\n      swap2\n      swap1\n      pop\n      jump\t// out\n        /* \"#utility.yul\":2138:2446   */\n    tag_98:\n        /* \"#utility.yul\":2200:2204   */\n      0x00\n        /* \"#utility.yul\":2290:2308   */\n      0xffffffffffffffff\n        /* \"#utility.yul\":2282:2288   */\n      dup3\n        /* \"#utility.yul\":2279:2309   */\n      gt\n        /* \"#utility.yul\":2276:2332   */\n      iszero\n      tag_159\n      jumpi\n        /* \"#utility.yul\":2312:2330   */\n      tag_160\n      tag_95\n      jump\t// in\n    tag_160:\n        /* \"#utility.yul\":2276:2332   */\n    tag_159:\n        /* \"#utility.yul\":2350:2379   */\n      tag_161\n        /* \"#utility.yul\":2372:2378   */\n      dup3\n        /* \"#utility.yul\":2350:2379   */\n      tag_94\n      jump\t// in\n    tag_161:\n        /* \"#utility.yul\":2342:2379   */\n      swap1\n      pop\n        /* \"#utility.yul\":2434:2438   */\n      0x20\n        /* \"#utility.yul\":2428:2432   */\n      dup2\n        /* \"#utility.yul\":2424:2439   */\n      add\n        /* \"#utility.yul\":2416:2439   */\n      swap1\n      pop\n        /* \"#utility.yul\":2138:2446   */\n      swap2\n      swap1\n      pop\n      jump\t// out\n        /* \"#utility.yul\":2452:2600   */\n    tag_99:\n        /* \"#utility.yul\":2550:2556   */\n      dup3\n        /* \"#utility.yul\":2545:2548   */\n      dup2\n        /* \"#utility.yul\":2540:2543   */\n      dup4\n        /* \"#utility.yul\":2527:2557   */\n      calldatacopy\n        /* \"#utility.yul\":2591:2592   */\n      0x00\n        /* \"#utility.yul\":2582:2588   */\n      dup4\n        /* \"#utility.yul\":2577:2580   */\n      dup4\n        /* \"#utility.yul\":2573:2589   */\n      add\n        /* \"#utility.yul\":2566:2593   */\n      mstore\n        /* \"#utility.yul\":2452:2600   */\n      pop\n      pop\n      pop\n      jump\t// out\n        /* \"#utility.yul\":2606:3031   */\n    tag_100:\n        /* \"#utility.yul\":2684:2689   */\n      0x00\n        /* \"#utility.yul\":2709:2775   */\n      tag_164\n        /* \"#utility.yul\":2725:2774   */\n      tag_165\n        /* \"#utility.yul\":2767:2773   */\n      dup5\n        /* \"#utility.yul\":2725:2774   */\n      tag_98\n      jump\t// in\n    tag_165:\n        /* \"#utility.yul\":2709:2775   */\n      tag_97\n      jump\t// in\n    tag_164:\n        /* \"#utility.yul\":2700:2775   */\n      swap1\n      pop\n        /* \"#utility.yul\":2798:2804   */\n      dup3\n        /* \"#utility.yul\":2791:2796   */\n      dup2\n        /* \"#utility.yul\":2784:2805   */\n      mstore\n        /* \"#utility.yul\":2836:2840   */\n      0x20\n        /* \"#utility.yul\":2829:2834   */\n      dup2\n        /* \"#utility.yul\":2825:2841   */\n      add\n        /* \"#utility.yul\":2874:2877   */\n      dup5\n        /* \"#utility.yul\":2865:2871   */\n      dup5\n        /* \"#utility.yul\":2860:2863   */\n      dup5\n        /* \"#utility.yul\":2856:2872   */\n      add\n        /* \"#utility.yul\":2853:2878   */\n      gt\n        /* \"#utility.yul\":2850:2962   */\n      iszero\n      tag_166\n      jumpi\n        /* \"#utility.yul\":2881:2960   */\n      tag_167\n      tag_93\n      jump\t// in\n    tag_167:\n        /* \"#utility.yul\":2850:2962   */\n    tag_166:\n        /* \"#utility.yul\":2971:3025   */\n      tag_168\n        /* \"#utility.yul\":3018:3024   */\n      dup5\n        /* \"#utility.yul\":3013:3016   */\n      dup3\n        /* \"#utility.yul\":3008:3011   */\n      dup6\n        /* \"#utility.yul\":2971:3025   */\n      tag_99\n      jump\t// in\n    tag_168:\n        /* \"#utility.yul\":2690:3031   */\n      pop\n        /* \"#utility.yul\":2606:3031   */\n      swap4\n      swap3\n      pop\n      pop\n      pop\n      jump\t// out\n        /* \"#utility.yul\":3051:3391   */\n    tag_101:\n        /* \"#utility.yul\":3107:3112   */\n      0x00\n        /* \"#utility.yul\":3156:3159   */\n      dup3\n        /* \"#utility.yul\":3149:3153   */\n      0x1f\n        /* \"#utility.yul\":3141:3147   */\n      dup4\n        /* \"#utility.yul\":3137:3154   */\n      add\n        /* \"#utility.yul\":3133:3160   */\n      slt\n        /* \"#utility.yul\":3123:3245   */\n      tag_170\n      jumpi\n        /* \"#utility.yul\":3164:3243   */\n      tag_171\n      tag_92\n      jump\t// in\n    tag_171:\n        /* \"#utility.yul\":3123:3245   */\n    tag_170:\n        /* \"#utility.yul\":3281:3287   */\n      dup2\n        /* \"#utility.yul\":3268:3288   */\n      calldataload\n        /* \"#utility.yul\":3306:3385   */\n      tag_172\n        /* \"#utility.yul\":3381:3384   */\n      dup5\n        /* \"#utility.yul\":3373:3379   */\n      dup3\n        /* \"#utility.yul\":3366:3370   */\n      0x20\n        /* \"#utility.yul\":3358:3364   */\n      dup7\n        /* \"#utility.yul\":3354:3371   */\n      add\n        /* \"#utility.yul\":3306:3385   */\n      tag_100\n      jump\t// in\n    tag_172:\n        /* \"#utility.yul\":3297:3385   */\n      swap2\n      pop\n        /* \"#utility.yul\":3113:3391   */\n      pop\n        /* \"#utility.yul\":3051:3391   */\n      swap3\n      swap2\n      pop\n      pop\n      jump\t// out\n        /* \"#utility.yul\":3397:4556   */\n    tag_14:\n        /* \"#utility.yul\":3504:3510   */\n      0x00\n        /* \"#utility.yul\":3512:3518   */\n      dup1\n        /* \"#utility.yul\":3520:3526   */\n      0x00\n        /* \"#utility.yul\":3569:3571   */\n      0x60\n        /* \"#utility.yul\":3557:3566   */\n      dup5\n        /* \"#utility.yul\":3548:3555   */\n      dup7\n        /* \"#utility.yul\":3544:3567   */\n      sub\n        /* \"#utility.yul\":3540:3572   */\n      slt\n        /* \"#utility.yul\":3537:3656   */\n      iszero\n      tag_174\n      jumpi\n        /* \"#utility.yul\":3575:3654   */\n      tag_175\n      tag_86\n      jump\t// in\n    tag_175:\n        /* \"#utility.yul\":3537:3656   */\n    tag_174:\n        /* \"#utility.yul\":3723:3724   */\n      0x00\n        /* \"#utility.yul\":3712:3721   */\n      dup5\n        /* \"#utility.yul\":3708:3725   */\n      add\n        /* \"#utility.yul\":3695:3726   */\n      calldataload\n        /* \"#utility.yul\":3753:3771   */\n      0xffffffffffffffff\n        /* \"#utility.yul\":3745:3751   */\n      dup2\n        /* \"#utility.yul\":3742:3772   */\n      gt\n        /* \"#utility.yul\":3739:3856   */\n      iszero\n      tag_176\n      jumpi\n        /* \"#utility.yul\":3775:3854   */\n      tag_177\n      tag_87\n      jump\t// in\n    tag_177:\n        /* \"#utility.yul\":3739:3856   */\n    tag_176:\n        /* \"#utility.yul\":3880:3943   */\n      tag_178\n        /* \"#utility.yul\":3935:3942   */\n      dup7\n        /* \"#utility.yul\":3926:3932   */\n      dup3\n        /* \"#utility.yul\":3915:3924   */\n      dup8\n        /* \"#utility.yul\":3911:3933   */\n      add\n        /* \"#utility.yul\":3880:3943   */\n      tag_101\n      jump\t// in\n    tag_178:\n        /* \"#utility.yul\":3870:3943   */\n      swap4\n      pop\n        /* \"#utility.yul\":3666:3953   */\n      pop\n        /* \"#utility.yul\":4020:4022   */\n      0x20\n        /* \"#utility.yul\":4009:4018   */\n      dup5\n        /* \"#utility.yul\":4005:4023   */\n      add\n        /* \"#utility.yul\":3992:4024   */\n      calldataload\n        /* \"#utility.yul\":4051:4069   */\n      0xffffffffffffffff\n        /* \"#utility.yul\":4043:4049   */\n      dup2\n        /* \"#utility.yul\":4040:4070   */\n      gt\n        /* \"#utility.yul\":4037:4154   */\n      iszero\n      tag_179\n      jumpi\n        /* \"#utility.yul\":4073:4152   */\n      tag_180\n      tag_87\n      jump\t// in\n    tag_180:\n        /* \"#utility.yul\":4037:4154   */\n    tag_179:\n        /* \"#utility.yul\":4178:4241   */\n      tag_181\n        /* \"#utility.yul\":4233:4240   */\n      dup7\n        /* \"#utility.yul\":4224:4230   */\n      dup3\n        /* \"#utility.yul\":4213:4222   */\n      dup8\n        /* \"#utility.yul\":4209:4231   */\n      add\n        /* \"#utility.yul\":4178:4241   */\n      tag_101\n      jump\t// in\n    tag_181:\n        /* \"#utility.yul\":4168:4241   */\n      swap3\n      pop\n        /* \"#utility.yul\":3963:4251   */\n      pop\n        /* \"#utility.yul\":4318:4320   */\n      0x40\n        /* \"#utility.yul\":4307:4316   */\n      dup5\n        /* \"#utility.yul\":4303:4321   */\n      add\n        /* \"#utility.yul\":4290:4322   */\n      calldataload\n        /* \"#utility.yul\":4349:4367   */\n      0xffffffffffffffff\n        /* \"#utility.yul\":4341:4347   */\n      dup2\n        /* \"#utility.yul\":4338:4368   */\n      gt\n        /* \"#utility.yul\":4335:4452   */\n      iszero\n      tag_182\n      jumpi\n        /* \"#utility.yul\":4371:4450   */\n      tag_183\n      tag_87\n      jump\t// in\n    tag_183:\n        /* \"#utility.yul\":4335:4452   */\n    tag_182:\n        /* \"#utility.yul\":4476:4539   */\n      tag_184\n        /* \"#utility.yul\":4531:4538   */\n      dup7\n        /* \"#utility.yul\":4522:4528   */\n      dup3\n        /* \"#utility.yul\":4511:4520   */\n      dup8\n        /* \"#utility.yul\":4507:4529   */\n      add\n        /* \"#utility.yul\":4476:4539   */\n      tag_101\n      jump\t// in\n    tag_184:\n        /* \"#utility.yul\":4466:4539   */\n      swap2\n      pop\n        /* \"#utility.yul\":4261:4549   */\n      pop\n        /* \"#utility.yul\":3397:4556   */\n      swap3\n      pop\n      swap3\n      pop\n      swap3\n      jump\t// out\n        /* \"#utility.yul\":4562:5071   */\n    tag_18:\n        /* \"#utility.yul\":4631:4637   */\n      0x00\n        /* \"#utility.yul\":4680:4682   */\n      0x20\n        /* \"#utility.yul\":4668:4677   */\n      dup3\n        /* \"#utility.yul\":4659:4666   */\n      dup5\n        /* \"#utility.yul\":4655:4678   */\n      sub\n        /* \"#utility.yul\":4651:4683   */\n      slt\n        /* \"#utility.yul\":4648:4767   */\n      iszero\n      tag_186\n      jumpi\n        /* \"#utility.yul\":4686:4765   */\n      tag_187\n      tag_86\n      jump\t// in\n    tag_187:\n        /* \"#utility.yul\":4648:4767   */\n    tag_186:\n        /* \"#utility.yul\":4834:4835   */\n      0x00\n        /* \"#utility.yul\":4823:4832   */\n      dup3\n        /* \"#utility.yul\":4819:4836   */\n      add\n        /* \"#utility.yul\":4806:4837   */\n      calldataload\n        /* \"#utility.yul\":4864:4882   */\n      0xffffffffffffffff\n        /* \"#utility.yul\":4856:4862   */\n      dup2\n        /* \"#utility.yul\":4853:4883   */\n      gt\n        /* \"#utility.yul\":4850:4967   */\n      iszero\n      tag_188\n      jumpi\n        /* \"#utility.yul\":4886:4965   */\n      tag_189\n      tag_87\n      jump\t// in\n    tag_189:\n        /* \"#utility.yul\":4850:4967   */\n    tag_188:\n        /* \"#utility.yul\":4991:5054   */\n      tag_190\n        /* \"#utility.yul\":5046:5053   */\n      dup5\n        /* \"#utility.yul\":5037:5043   */\n      dup3\n        /* \"#utility.yul\":5026:5035   */\n      dup6\n        /* \"#utility.yul\":5022:5044   */\n      add\n        /* \"#utility.yul\":4991:5054   */\n      tag_101\n      jump\t// in\n    tag_190:\n        /* \"#utility.yul\":4981:5054   */\n      swap2\n      pop\n        /* \"#utility.yul\":4777:5064   */\n      pop\n        /* \"#utility.yul\":4562:5071   */\n      swap3\n      swap2\n      pop\n      pop\n      jump\t// out\n        /* \"#utility.yul\":5077:5176   */\n    tag_102:\n        /* \"#utility.yul\":5129:5135   */\n      0x00\n        /* \"#utility.yul\":5163:5168   */\n      dup2\n        /* \"#utility.yul\":5157:5169   */\n      mload\n        /* \"#utility.yul\":5147:5169   */\n      swap1\n      pop\n        /* \"#utility.yul\":5077:5176   */\n      swap2\n      swap1\n      pop\n      jump\t// out\n        /* \"#utility.yul\":5182:5351   */\n    tag_103:\n        /* \"#utility.yul\":5266:5277   */\n      0x00\n        /* \"#utility.yul\":5300:5306   */\n      dup3\n        /* \"#utility.yul\":5295:5298   */\n      dup3\n        /* \"#utility.yul\":5288:5307   */\n      mstore\n        /* \"#utility.yul\":5340:5344   */\n      0x20\n        /* \"#utility.yul\":5335:5338   */\n      dup3\n        /* \"#utility.yul\":5331:5345   */\n      add\n        /* \"#utility.yul\":5316:5345   */\n      swap1\n      pop\n        /* \"#utility.yul\":5182:5351   */\n      swap3\n      swap2\n      pop\n      pop\n      jump\t// out\n        /* \"#utility.yul\":5357:5496   */\n    tag_104:\n        /* \"#utility.yul\":5446:5452   */\n      dup3\n        /* \"#utility.yul\":5441:5444   */\n      dup2\n        /* \"#utility.yul\":5436:5439   */\n      dup4\n        /* \"#utility.yul\":5430:5453   */\n      mcopy\n        /* \"#utility.yul\":5487:5488   */\n      0x00\n        /* \"#utility.yul\":5478:5484   */\n      dup4\n        /* \"#utility.yul\":5473:5476   */\n      dup4\n        /* \"#utility.yul\":5469:5485   */\n      add\n        /* \"#utility.yul\":5462:5489   */\n      mstore\n        /* \"#utility.yul\":5357:5496   */\n      pop\n      pop\n      pop\n      jump\t// out\n        /* \"#utility.yul\":5502:5879   */\n    tag_105:\n        /* \"#utility.yul\":5590:5593   */\n      0x00\n        /* \"#utility.yul\":5618:5657   */\n      tag_195\n        /* \"#utility.yul\":5651:5656   */\n      dup3\n        /* \"#utility.yul\":5618:5657   */\n      tag_102\n      jump\t// in\n    tag_195:\n        /* \"#utility.yul\":5673:5744   */\n      tag_196\n        /* \"#utility.yul\":5737:5743   */\n      dup2\n        /* \"#utility.yul\":5732:5735   */\n      dup6\n        /* \"#utility.yul\":5673:5744   */\n      tag_103\n      jump\t// in\n    tag_196:\n        /* \"#utility.yul\":5666:5744   */\n      swap4\n      pop\n        /* \"#utility.yul\":5753:5818   */\n      tag_197\n        /* \"#utility.yul\":5811:5817   */\n      dup2\n        /* \"#utility.yul\":5806:5809   */\n      dup6\n        /* \"#utility.yul\":5799:5803   */\n      0x20\n        /* \"#utility.yul\":5792:5797   */\n      dup7\n        /* \"#utility.yul\":5788:5804   */\n      add\n        /* \"#utility.yul\":5753:5818   */\n      tag_104\n      jump\t// in\n    tag_197:\n        /* \"#utility.yul\":5843:5872   */\n      tag_198\n        /* \"#utility.yul\":5865:5871   */\n      dup2\n        /* \"#utility.yul\":5843:5872   */\n      tag_94\n      jump\t// in\n    tag_198:\n        /* \"#utility.yul\":5838:5841   */\n      dup5\n        /* \"#utility.yul\":5834:5873   */\n      add\n        /* \"#utility.yul\":5827:5873   */\n      swap2\n      pop\n        /* \"#utility.yul\":5594:5879   */\n      pop\n        /* \"#utility.yul\":5502:5879   */\n      swap3\n      swap2\n      pop\n      pop\n      jump\t// out\n        /* \"#utility.yul\":5885:6399   */\n    tag_21:\n        /* \"#utility.yul\":6046:6050   */\n      0x00\n        /* \"#utility.yul\":6084:6086   */\n      0x40\n        /* \"#utility.yul\":6073:6082   */\n      dup3\n        /* \"#utility.yul\":6069:6087   */\n      add\n        /* \"#utility.yul\":6061:6087   */\n      swap1\n      pop\n        /* \"#utility.yul\":6133:6142   */\n      dup2\n        /* \"#utility.yul\":6127:6131   */\n      dup2\n        /* \"#utility.yul\":6123:6143   */\n      sub\n        /* \"#utility.yul\":6119:6120   */\n      0x00\n        /* \"#utility.yul\":6108:6117   */\n      dup4\n        /* \"#utility.yul\":6104:6121   */\n      add\n        /* \"#utility.yul\":6097:6144   */\n      mstore\n        /* \"#utility.yul\":6161:6239   */\n      tag_200\n        /* \"#utility.yul\":6234:6238   */\n      dup2\n        /* \"#utility.yul\":6225:6231   */\n      dup6\n        /* \"#utility.yul\":6161:6239   */\n      tag_105\n      jump\t// in\n    tag_200:\n        /* \"#utility.yul\":6153:6239   */\n      swap1\n      pop\n        /* \"#utility.yul\":6286:6295   */\n      dup2\n        /* \"#utility.yul\":6280:6284   */\n      dup2\n        /* \"#utility.yul\":6276:6296   */\n      sub\n        /* \"#utility.yul\":6271:6273   */\n      0x20\n        /* \"#utility.yul\":6260:6269   */\n      dup4\n        /* \"#utility.yul\":6256:6274   */\n      add\n        /* \"#utility.yul\":6249:6297   */\n      mstore\n        /* \"#utility.yul\":6314:6392   */\n      tag_201\n        /* \"#utility.yul\":6387:6391   */\n      dup2\n        /* \"#utility.yul\":6378:6384   */\n      dup5\n        /* \"#utility.yul\":6314:6392   */\n      tag_105\n      jump\t// in\n    tag_201:\n        /* \"#utility.yul\":6306:6392   */\n      swap1\n      pop\n        /* \"#utility.yul\":5885:6399   */\n      swap4\n      swap3\n      pop\n      pop\n      pop\n      jump\t// out\n        /* \"#utility.yul\":6405:6634   */\n    tag_106:\n        /* \"#utility.yul\":6545:6579   */\n      0x4f6e6c7920636f6e7472616374206f776e65722063616e2063616c6c20746869\n        /* \"#utility.yul\":6541:6542   */\n      0x00\n        /* \"#utility.yul\":6533:6539   */\n      dup3\n        /* \"#utility.yul\":6529:6543   */\n      add\n        /* \"#utility.yul\":6522:6580   */\n      mstore\n        /* \"#utility.yul\":6614:6626   */\n      0x732066756e6374696f6e00000000000000000000000000000000000000000000\n        /* \"#utility.yul\":6609:6611   */\n      0x20\n        /* \"#utility.yul\":6601:6607   */\n      dup3\n        /* \"#utility.yul\":6597:6612   */\n      add\n        /* \"#utility.yul\":6590:6627   */\n      mstore\n        /* \"#utility.yul\":6405:6634   */\n      pop\n      jump\t// out\n        /* \"#utility.yul\":6640:7006   */\n    tag_107:\n        /* \"#utility.yul\":6782:6785   */\n      0x00\n        /* \"#utility.yul\":6803:6870   */\n      tag_204\n        /* \"#utility.yul\":6867:6869   */\n      0x2a\n        /* \"#utility.yul\":6862:6865   */\n      dup4\n        /* \"#utility.yul\":6803:6870   */\n      tag_103\n      jump\t// in\n    tag_204:\n        /* \"#utility.yul\":6796:6870   */\n      swap2\n      pop\n        /* \"#utility.yul\":6879:6972   */\n      tag_205\n        /* \"#utility.yul\":6968:6971   */\n      dup3\n        /* \"#utility.yul\":6879:6972   */\n      tag_106\n      jump\t// in\n    tag_205:\n        /* \"#utility.yul\":6997:6999   */\n      0x40\n        /* \"#utility.yul\":6992:6995   */\n      dup3\n        /* \"#utility.yul\":6988:7000   */\n      add\n        /* \"#utility.yul\":6981:7000   */\n      swap1\n      pop\n        /* \"#utility.yul\":6640:7006   */\n      swap2\n      swap1\n      pop\n      jump\t// out\n        /* \"#utility.yul\":7012:7431   */\n    tag_31:\n        /* \"#utility.yul\":7178:7182   */\n      0x00\n        /* \"#utility.yul\":7216:7218   */\n      0x20\n        /* \"#utility.yul\":7205:7214   */\n      dup3\n        /* \"#utility.yul\":7201:7219   */\n      add\n        /* \"#utility.yul\":7193:7219   */\n      swap1\n      pop\n        /* \"#utility.yul\":7265:7274   */\n      dup2\n        /* \"#utility.yul\":7259:7263   */\n      dup2\n        /* \"#utility.yul\":7255:7275   */\n      sub\n        /* \"#utility.yul\":7251:7252   */\n      0x00\n        /* \"#utility.yul\":7240:7249   */\n      dup4\n        /* \"#utility.yul\":7236:7253   */\n      add\n        /* \"#utility.yul\":7229:7276   */\n      mstore\n        /* \"#utility.yul\":7293:7424   */\n      tag_207\n        /* \"#utility.yul\":7419:7423   */\n      dup2\n        /* \"#utility.yul\":7293:7424   */\n      tag_107\n      jump\t// in\n    tag_207:\n        /* \"#utility.yul\":7285:7424   */\n      swap1\n      pop\n        /* \"#utility.yul\":7012:7431   */\n      swap2\n      swap1\n      pop\n      jump\t// out\n        /* \"#utility.yul\":7437:7585   */\n    tag_108:\n        /* \"#utility.yul\":7539:7550   */\n      0x00\n        /* \"#utility.yul\":7576:7579   */\n      dup2\n        /* \"#utility.yul\":7561:7579   */\n      swap1\n      pop\n        /* \"#utility.yul\":7437:7585   */\n      swap3\n      swap2\n      pop\n      pop\n      jump\t// out\n        /* \"#utility.yul\":7591:7981   */\n    tag_109:\n        /* \"#utility.yul\":7697:7700   */\n      0x00\n        /* \"#utility.yul\":7725:7764   */\n      tag_210\n        /* \"#utility.yul\":7758:7763   */\n      dup3\n        /* \"#utility.yul\":7725:7764   */\n      tag_102\n      jump\t// in\n    tag_210:\n        /* \"#utility.yul\":7780:7869   */\n      tag_211\n        /* \"#utility.yul\":7862:7868   */\n      dup2\n        /* \"#utility.yul\":7857:7860   */\n      dup6\n        /* \"#utility.yul\":7780:7869   */\n      tag_108\n      jump\t// in\n    tag_211:\n        /* \"#utility.yul\":7773:7869   */\n      swap4\n      pop\n        /* \"#utility.yul\":7878:7943   */\n      tag_212\n        /* \"#utility.yul\":7936:7942   */\n      dup2\n        /* \"#utility.yul\":7931:7934   */\n      dup6\n        /* \"#utility.yul\":7924:7928   */\n      0x20\n        /* \"#utility.yul\":7917:7922   */\n      dup7\n        /* \"#utility.yul\":7913:7929   */\n      add\n        /* \"#utility.yul\":7878:7943   */\n      tag_104\n      jump\t// in\n    tag_212:\n        /* \"#utility.yul\":7968:7974   */\n      dup1\n        /* \"#utility.yul\":7963:7966   */\n      dup5\n        /* \"#utility.yul\":7959:7975   */\n      add\n        /* \"#utility.yul\":7952:7975   */\n      swap2\n      pop\n        /* \"#utility.yul\":7701:7981   */\n      pop\n        /* \"#utility.yul\":7591:7981   */\n      swap3\n      swap2\n      pop\n      pop\n      jump\t// out\n        /* \"#utility.yul\":7987:8262   */\n    tag_35:\n        /* \"#utility.yul\":8119:8122   */\n      0x00\n        /* \"#utility.yul\":8141:8236   */\n      tag_214\n        /* \"#utility.yul\":8232:8235   */\n      dup3\n        /* \"#utility.yul\":8223:8229   */\n      dup5\n        /* \"#utility.yul\":8141:8236   */\n      tag_109\n      jump\t// in\n    tag_214:\n        /* \"#utility.yul\":8134:8236   */\n      swap2\n      pop\n        /* \"#utility.yul\":8253:8256   */\n      dup2\n        /* \"#utility.yul\":8246:8256   */\n      swap1\n      pop\n        /* \"#utility.yul\":7987:8262   */\n      swap3\n      swap2\n      pop\n      pop\n      jump\t// out\n        /* \"#utility.yul\":8268:8448   */\n    tag_110:\n        /* \"#utility.yul\":8316:8393   */\n      0x4e487b7100000000000000000000000000000000000000000000000000000000\n        /* \"#utility.yul\":8313:8314   */\n      0x00\n        /* \"#utility.yul\":8306:8394   */\n      mstore\n        /* \"#utility.yul\":8413:8417   */\n      0x22\n        /* \"#utility.yul\":8410:8411   */\n      0x04\n        /* \"#utility.yul\":8403:8418   */\n      mstore\n        /* \"#utility.yul\":8437:8441   */\n      0x24\n        /* \"#utility.yul\":8434:8435   */\n      0x00\n        /* \"#utility.yul\":8427:8442   */\n      revert\n        /* \"#utility.yul\":8454:8774   */\n    tag_44:\n        /* \"#utility.yul\":8498:8504   */\n      0x00\n        /* \"#utility.yul\":8535:8536   */\n      0x02\n        /* \"#utility.yul\":8529:8533   */\n      dup3\n        /* \"#utility.yul\":8525:8537   */\n      div\n        /* \"#utility.yul\":8515:8537   */\n      swap1\n      pop\n        /* \"#utility.yul\":8582:8583   */\n      0x01\n        /* \"#utility.yul\":8576:8580   */\n      dup3\n        /* \"#utility.yul\":8572:8584   */\n      and\n        /* \"#utility.yul\":8603:8621   */\n      dup1\n        /* \"#utility.yul\":8593:8674   */\n      tag_217\n      jumpi\n        /* \"#utility.yul\":8659:8663   */\n      0x7f\n        /* \"#utility.yul\":8651:8657   */\n      dup3\n        /* \"#utility.yul\":8647:8664   */\n      and\n        /* \"#utility.yul\":8637:8664   */\n      swap2\n      pop\n        /* \"#utility.yul\":8593:8674   */\n    tag_217:\n        /* \"#utility.yul\":8721:8723   */\n      0x20\n        /* \"#utility.yul\":8713:8719   */\n      dup3\n        /* \"#utility.yul\":8710:8724   */\n      lt\n        /* \"#utility.yul\":8690:8708   */\n      dup2\n        /* \"#utility.yul\":8687:8725   */\n      sub\n        /* \"#utility.yul\":8684:8768   */\n      tag_218\n      jumpi\n        /* \"#utility.yul\":8740:8758   */\n      tag_219\n      tag_110\n      jump\t// in\n    tag_219:\n        /* \"#utility.yul\":8684:8768   */\n    tag_218:\n        /* \"#utility.yul\":8505:8774   */\n      pop\n        /* \"#utility.yul\":8454:8774   */\n      swap2\n      swap1\n      pop\n      jump\t// out\n        /* \"#utility.yul\":8780:8921   */\n    tag_111:\n        /* \"#utility.yul\":8829:8833   */\n      0x00\n        /* \"#utility.yul\":8852:8855   */\n      dup2\n        /* \"#utility.yul\":8844:8855   */\n      swap1\n      pop\n        /* \"#utility.yul\":8875:8878   */\n      dup2\n        /* \"#utility.yul\":8872:8873   */\n      0x00\n        /* \"#utility.yul\":8865:8879   */\n      mstore\n        /* \"#utility.yul\":8909:8913   */\n      0x20\n        /* \"#utility.yul\":8906:8907   */\n      0x00\n        /* \"#utility.yul\":8896:8914   */\n      keccak256\n        /* \"#utility.yul\":8888:8914   */\n      swap1\n      pop\n        /* \"#utility.yul\":8780:8921   */\n      swap2\n      swap1\n      pop\n      jump\t// out\n        /* \"#utility.yul\":8927:9020   */\n    tag_112:\n        /* \"#utility.yul\":8964:8970   */\n      0x00\n        /* \"#utility.yul\":9011:9013   */\n      0x20\n        /* \"#utility.yul\":9006:9008   */\n      0x1f\n        /* \"#utility.yul\":8999:9004   */\n      dup4\n        /* \"#utility.yul\":8995:9009   */\n      add\n        /* \"#utility.yul\":8991:9014   */\n      div\n        /* \"#utility.yul\":8981:9014   */\n      swap1\n      pop\n        /* \"#utility.yul\":8927:9020   */\n      swap2\n      swap1\n      pop\n      jump\t// out\n        /* \"#utility.yul\":9026:9133   */\n    tag_113:\n        /* \"#utility.yul\":9070:9078   */\n      0x00\n        /* \"#utility.yul\":9120:9125   */\n      dup3\n        /* \"#utility.yul\":9114:9118   */\n      dup3\n        /* \"#utility.yul\":9110:9126   */\n      shl\n        /* \"#utility.yul\":9089:9126   */\n      swap1\n      pop\n        /* \"#utility.yul\":9026:9133   */\n      swap3\n      swap2\n      pop\n      pop\n      jump\t// out\n        /* \"#utility.yul\":9139:9532   */\n    tag_114:\n        /* \"#utility.yul\":9208:9214   */\n      0x00\n        /* \"#utility.yul\":9258:9259   */\n      0x08\n        /* \"#utility.yul\":9246:9256   */\n      dup4\n        /* \"#utility.yul\":9242:9260   */\n      mul\n        /* \"#utility.yul\":9281:9378   */\n      tag_224\n        /* \"#utility.yul\":9311:9377   */\n      0xffffffffffffffffffffffffffffffffffffffffffffffffffffffffffffffff\n        /* \"#utility.yul\":9300:9309   */\n      dup3\n        /* \"#utility.yul\":9281:9378   */\n      tag_113\n      jump\t// in\n    tag_224:\n        /* \"#utility.yul\":9399:9438   */\n      tag_225\n        /* \"#utility.yul\":9429:9437   */\n      dup7\n        /* \"#utility.yul\":9418:9427   */\n      dup4\n        /* \"#utility.yul\":9399:9438   */\n      tag_113\n      jump\t// in\n    tag_225:\n        /* \"#utility.yul\":9387:9438   */\n      swap6\n      pop\n        /* \"#utility.yul\":9471:9475   */\n      dup1\n        /* \"#utility.yul\":9467:9476   */\n      not\n        /* \"#utility.yul\":9460:9465   */\n      dup5\n        /* \"#utility.yul\":9456:9477   */\n      and\n        /* \"#utility.yul\":9447:9477   */\n      swap4\n      pop\n        /* \"#utility.yul\":9520:9524   */\n      dup1\n        /* \"#utility.yul\":9510:9518   */\n      dup7\n        /* \"#utility.yul\":9506:9525   */\n      and\n        /* \"#utility.yul\":9499:9504   */\n      dup5\n        /* \"#utility.yul\":9496:9526   */\n      or\n        /* \"#utility.yul\":9486:9526   */\n      swap3\n      pop\n        /* \"#utility.yul\":9215:9532   */\n      pop\n      pop\n        /* \"#utility.yul\":9139:9532   */\n      swap4\n      swap3\n      pop\n      pop\n      pop\n      jump\t// out\n        /* \"#utility.yul\":9538:9615   */\n    tag_115:\n        /* \"#utility.yul\":9575:9582   */\n      0x00\n        /* \"#utility.yul\":9604:9609   */\n      dup2\n        /* \"#utility.yul\":9593:9609   */\n      swap1\n      pop\n        /* \"#utility.yul\":9538:9615   */\n      swap2\n      swap1\n      pop\n      jump\t// out\n        /* \"#utility.yul\":9621:9681   */\n    tag_116:\n        /* \"#utility.yul\":9649:9652   */\n      0x00\n        /* \"#utility.yul\":9670:9675   */\n      dup2\n        /* \"#utility.yul\":9663:9675   */\n      swap1\n      pop\n        /* \"#utility.yul\":9621:9681   */\n      swap2\n      swap1\n      pop\n      jump\t// out\n        /* \"#utility.yul\":9687:9829   */\n    tag_117:\n        /* \"#utility.yul\":9737:9746   */\n      0x00\n        /* \"#utility.yul\":9770:9823   */\n      tag_229\n        /* \"#utility.yul\":9788:9822   */\n      tag_230\n        /* \"#utility.yul\":9797:9821   */\n      tag_231\n        /* \"#utility.yul\":9815:9820   */\n      dup5\n        /* \"#utility.yul\":9797:9821   */\n      tag_115\n      jump\t// in\n    tag_231:\n        /* \"#utility.yul\":9788:9822   */\n      tag_116\n      jump\t// in\n    tag_230:\n        /* \"#utility.yul\":9770:9823   */\n      tag_115\n      jump\t// in\n    tag_229:\n        /* \"#utility.yul\":9757:9823   */\n      swap1\n      pop\n        /* \"#utility.yul\":9687:9829   */\n      swap2\n      swap1\n      pop\n      jump\t// out\n        /* \"#utility.yul\":9835:9910   */\n    tag_118:\n        /* \"#utility.yul\":9878:9881   */\n      0x00\n        /* \"#utility.yul\":9899:9904   */\n      dup2\n        /* \"#utility.yul\":9892:9904   */\n      swap1\n      pop\n        /* \"#utility.yul\":9835:9910   */\n      swap2\n      swap1\n      pop\n      jump\t// out\n        /* \"#utility.yul\":9916:10185   */\n    tag_119:\n        /* \"#utility.yul\":10026:10065   */\n      tag_234\n        /* \"#utility.yul\":10057:10064   */\n      dup4\n        /* \"#utility.yul\":10026:10065   */\n      tag_117\n      jump\t// in\n    tag_234:\n        /* \"#utility.yul\":10087:10178   */\n      tag_235\n        /* \"#utility.yul\":10136:10177   */\n      tag_236\n        /* \"#utility.yul\":10160:10176   */\n      dup3\n        /* \"#utility.yul\":10136:10177   */\n      tag_118\n      jump\t// in\n    tag_236:\n        /* \"#utility.yul\":10128:10134   */\n      dup5\n        /* \"#utility.yul\":10121:10125   */\n      dup5\n        /* \"#utility.yul\":10115:10126   */\n      sload\n        /* \"#utility.yul\":10087:10178   */\n      tag_114\n      jump\t// in\n    tag_235:\n        /* \"#utility.yul\":10081:10085   */\n      dup3\n        /* \"#utility.yul\":10074:10179   */\n      sstore\n        /* \"#utility.yul\":9992:10185   */\n      pop\n        /* \"#utility.yul\":9916:10185   */\n      pop\n      pop\n      pop\n      jump\t// out\n        /* \"#utility.yul\":10191:10264   */\n    tag_120:\n        /* \"#utility.yul\":10236:10239   */\n      0x00\n        /* \"#utility.yul\":10191:10264   */\n      swap1\n      jump\t// out\n        /* \"#utility.yul\":10270:10459   */\n    tag_121:\n        /* \"#utility.yul\":10347:10379   */\n      tag_239\n      tag_120\n      jump\t// in\n    tag_239:\n        /* \"#utility.yul\":10388:10453   */\n      tag_240\n        /* \"#utility.yul\":10446:10452   */\n      dup2\n        /* \"#utility.yul\":10438:10444   */\n      dup5\n        /* \"#utility.yul\":10432:10436   */\n      dup5\n        /* \"#utility.yul\":10388:10453   */\n      tag_119\n      jump\t// in\n    tag_240:\n        /* \"#utility.yul\":10323:10459   */\n      pop\n        /* \"#utility.yul\":10270:10459   */\n      pop\n      pop\n      jump\t// out\n        /* \"#utility.yul\":10465:10651   */\n    tag_122:\n        /* \"#utility.yul\":10525:10645   */\n    tag_242:\n        /* \"#utility.yul\":10542:10545   */\n      dup2\n        /* \"#utility.yul\":10535:10540   */\n      dup2\n        /* \"#utility.yul\":10532:10546   */\n      lt\n        /* \"#utility.yul\":10525:10645   */\n      iszero\n      tag_244\n      jumpi\n        /* \"#utility.yul\":10596:10635   */\n      tag_245\n        /* \"#utility.yul\":10633:10634   */\n      0x00\n        /* \"#utility.yul\":10626:10631   */\n      dup3\n        /* \"#utility.yul\":10596:10635   */\n      tag_121\n      jump\t// in\n    tag_245:\n        /* \"#utility.yul\":10569:10570   */\n      0x01\n        /* \"#utility.yul\":10562:10567   */\n      dup2\n        /* \"#utility.yul\":10558:10571   */\n      add\n        /* \"#utility.yul\":10549:10571   */\n      swap1\n      pop\n        /* \"#utility.yul\":10525:10645   */\n      jump(tag_242)\n    tag_244:\n        /* \"#utility.yul\":10465:10651   */\n      pop\n      pop\n      jump\t// out\n        /* \"#utility.yul\":10657:11200   */\n    tag_123:\n        /* \"#utility.yul\":10758:10760   */\n      0x1f\n        /* \"#utility.yul\":10753:10756   */\n      dup3\n        /* \"#utility.yul\":10750:10761   */\n      gt\n        /* \"#utility.yul\":10747:11193   */\n      iszero\n      tag_247\n      jumpi\n        /* \"#utility.yul\":10792:10830   */\n      tag_248\n        /* \"#utility.yul\":10824:10829   */\n      dup2\n        /* \"#utility.yul\":10792:10830   */\n      tag_111\n      jump\t// in\n    tag_248:\n        /* \"#utility.yul\":10876:10905   */\n      tag_249\n        /* \"#utility.yul\":10894:10904   */\n      dup5\n        /* \"#utility.yul\":10876:10905   */\n      tag_112\n      jump\t// in\n    tag_249:\n        /* \"#utility.yul\":10866:10874   */\n      dup2\n        /* \"#utility.yul\":10862:10906   */\n      add\n        /* \"#utility.yul\":11059:11061   */\n      0x20\n        /* \"#utility.yul\":11047:11057   */\n      dup6\n        /* \"#utility.yul\":11044:11062   */\n      lt\n        /* \"#utility.yul\":11041:11090   */\n      iszero\n      tag_250\n      jumpi\n        /* \"#utility.yul\":11080:11088   */\n      dup2\n        /* \"#utility.yul\":11065:11088   */\n      swap1\n      pop\n        /* \"#utility.yul\":11041:11090   */\n    tag_250:\n        /* \"#utility.yul\":11103:11183   */\n      tag_251\n        /* \"#utility.yul\":11159:11181   */\n      tag_252\n        /* \"#utility.yul\":11177:11180   */\n      dup6\n        /* \"#utility.yul\":11159:11181   */\n      tag_112\n      jump\t// in\n    tag_252:\n        /* \"#utility.yul\":11149:11157   */\n      dup4\n        /* \"#utility.yul\":11145:11182   */\n      add\n        /* \"#utility.yul\":11132:11143   */\n      dup3\n        /* \"#utility.yul\":11103:11183   */\n      tag_122\n      jump\t// in\n    tag_251:\n        /* \"#utility.yul\":10762:11193   */\n      pop\n      pop\n        /* \"#utility.yul\":10747:11193   */\n    tag_247:\n        /* \"#utility.yul\":10657:11200   */\n      pop\n      pop\n      pop\n      jump\t// out\n        /* \"#utility.yul\":11206:11323   */\n    tag_124:\n        /* \"#utility.yul\":11260:11268   */\n      0x00\n        /* \"#utility.yul\":11310:11315   */\n      dup3\n        /* \"#utility.yul\":11304:11308   */\n      dup3\n        /* \"#utility.yul\":11300:11316   */\n      shr\n        /* \"#utility.yul\":11279:11316   */\n      swap1\n      pop\n        /* \"#utility.yul\":11206:11323   */\n      swap3\n      swap2\n      pop\n      pop\n      jump\t// out\n        /* \"#utility.yul\":11329:11498   */\n    tag_125:\n        /* \"#utility.yul\":11373:11379   */\n      0x00\n        /* \"#utility.yul\":11406:11457   */\n      tag_255\n        /* \"#utility.yul\":11454:11455   */\n      0x00\n        /* \"#utility.yul\":11450:11456   */\n      not\n        /* \"#utility.yul\":11442:11447   */\n      dup5\n        /* \"#utility.yul\":11439:11440   */\n      0x08\n        /* \"#utility.yul\":11435:11448   */\n      mul\n        /* \"#utility.yul\":11406:11457   */\n      tag_124\n      jump\t// in\n    tag_255:\n        /* \"#utility.yul\":11402:11458   */\n      not\n        /* \"#utility.yul\":11487:11491   */\n      dup1\n        /* \"#utility.yul\":11481:11485   */\n      dup4\n        /* \"#utility.yul\":11477:11492   */\n      and\n        /* \"#utility.yul\":11467:11492   */\n      swap2\n      pop\n        /* \"#utility.yul\":11380:11498   */\n      pop\n        /* \"#utility.yul\":11329:11498   */\n      swap3\n      swap2\n      pop\n      pop\n      jump\t// out\n        /* \"#utility.yul\":11503:11798   */\n    tag_126:\n        /* \"#utility.yul\":11579:11583   */\n      0x00\n        /* \"#utility.yul\":11725:11754   */\n      tag_257\n        /* \"#utility.yul\":11750:11753   */\n      dup4\n        /* \"#utility.yul\":11744:11748   */\n      dup4\n        /* \"#utility.yul\":11725:11754   */\n      tag_125\n      jump\t// in\n    tag_257:\n        /* \"#utility.yul\":11717:11754   */\n      swap2\n      pop\n        /* \"#utility.yul\":11787:11790   */\n      dup3\n        /* \"#utility.yul\":11784:11785   */\n      0x02\n        /* \"#utility.yul\":11780:11791   */\n      mul\n        /* \"#utility.yul\":11774:11778   */\n      dup3\n        /* \"#utility.yul\":11771:11792   */\n      or\n        /* \"#utility.yul\":11763:11792   */\n      swap1\n      pop\n        /* \"#utility.yul\":11503:11798   */\n      swap3\n      swap2\n      pop\n      pop\n      jump\t// out\n        /* \"#utility.yul\":11803:13198   */\n    tag_37:\n        /* \"#utility.yul\":11920:11957   */\n      tag_259\n        /* \"#utility.yul\":11953:11956   */\n      dup3\n        /* \"#utility.yul\":11920:11957   */\n      tag_102\n      jump\t// in\n    tag_259:\n        /* \"#utility.yul\":12022:12040   */\n      0xffffffffffffffff\n        /* \"#utility.yul\":12014:12020   */\n      dup2\n        /* \"#utility.yul\":12011:12041   */\n      gt\n        /* \"#utility.yul\":12008:12064   */\n      iszero\n      tag_260\n      jumpi\n        /* \"#utility.yul\":12044:12062   */\n      tag_261\n      tag_95\n      jump\t// in\n    tag_261:\n        /* \"#utility.yul\":12008:12064   */\n    tag_260:\n        /* \"#utility.yul\":12088:12126   */\n      tag_262\n        /* \"#utility.yul\":12120:12124   */\n      dup3\n        /* \"#utility.yul\":12114:12125   */\n      sload\n        /* \"#utility.yul\":12088:12126   */\n      tag_44\n      jump\t// in\n    tag_262:\n        /* \"#utility.yul\":12173:12240   */\n      tag_263\n        /* \"#utility.yul\":12233:12239   */\n      dup3\n        /* \"#utility.yul\":12225:12231   */\n      dup3\n        /* \"#utility.yul\":12219:12223   */\n      dup6\n        /* \"#utility.yul\":12173:12240   */\n      tag_123\n      jump\t// in\n    tag_263:\n        /* \"#utility.yul\":12267:12268   */\n      0x00\n        /* \"#utility.yul\":12291:12295   */\n      0x20\n        /* \"#utility.yul\":12278:12295   */\n      swap1\n      pop\n        /* \"#utility.yul\":12323:12325   */\n      0x1f\n        /* \"#utility.yul\":12315:12321   */\n      dup4\n        /* \"#utility.yul\":12312:12326   */\n      gt\n        /* \"#utility.yul\":12340:12341   */\n      0x01\n        /* \"#utility.yul\":12335:12953   */\n      dup2\n      eq\n      tag_265\n      jumpi\n        /* \"#utility.yul\":12997:12998   */\n      0x00\n        /* \"#utility.yul\":13014:13020   */\n      dup5\n        /* \"#utility.yul\":13011:13088   */\n      iszero\n      tag_266\n      jumpi\n        /* \"#utility.yul\":13063:13072   */\n      dup3\n        /* \"#utility.yul\":13058:13061   */\n      dup8\n        /* \"#utility.yul\":13054:13073   */\n      add\n        /* \"#utility.yul\":13048:13074   */\n      mload\n        /* \"#utility.yul\":13039:13074   */\n      swap1\n      pop\n        /* \"#utility.yul\":13011:13088   */\n    tag_266:\n        /* \"#utility.yul\":13114:13181   */\n      tag_267\n        /* \"#utility.yul\":13174:13180   */\n      dup6\n        /* \"#utility.yul\":13167:13172   */\n      dup3\n        /* \"#utility.yul\":13114:13181   */\n      tag_126\n      jump\t// in\n    tag_267:\n        /* \"#utility.yul\":13108:13112   */\n      dup7\n        /* \"#utility.yul\":13101:13182   */\n      sstore\n        /* \"#utility.yul\":12970:13192   */\n      pop\n        /* \"#utility.yul\":12305:13192   */\n      jump(tag_264)\n        /* \"#utility.yul\":12335:12953   */\n    tag_265:\n        /* \"#utility.yul\":12387:12391   */\n      0x1f\n        /* \"#utility.yul\":12383:12392   */\n      not\n        /* \"#utility.yul\":12375:12381   */\n      dup5\n        /* \"#utility.yul\":12371:12393   */\n      and\n        /* \"#utility.yul\":12421:12458   */\n      tag_268\n        /* \"#utility.yul\":12453:12457   */\n      dup7\n        /* \"#utility.yul\":12421:12458   */\n      tag_111\n      jump\t// in\n    tag_268:\n        /* \"#utility.yul\":12480:12481   */\n      0x00\n        /* \"#utility.yul\":12494:12702   */\n    tag_269:\n        /* \"#utility.yul\":12508:12515   */\n      dup3\n        /* \"#utility.yul\":12505:12506   */\n      dup2\n        /* \"#utility.yul\":12502:12516   */\n      lt\n        /* \"#utility.yul\":12494:12702   */\n      iszero\n      tag_271\n      jumpi\n        /* \"#utility.yul\":12587:12596   */\n      dup5\n        /* \"#utility.yul\":12582:12585   */\n      dup10\n        /* \"#utility.yul\":12578:12597   */\n      add\n        /* \"#utility.yul\":12572:12598   */\n      mload\n        /* \"#utility.yul\":12564:12570   */\n      dup3\n        /* \"#utility.yul\":12557:12599   */\n      sstore\n        /* \"#utility.yul\":12638:12639   */\n      0x01\n        /* \"#utility.yul\":12630:12636   */\n      dup3\n        /* \"#utility.yul\":12626:12640   */\n      add\n        /* \"#utility.yul\":12616:12640   */\n      swap2\n      pop\n        /* \"#utility.yul\":12685:12687   */\n      0x20\n        /* \"#utility.yul\":12674:12683   */\n      dup6\n        /* \"#utility.yul\":12670:12688   */\n      add\n        /* \"#utility.yul\":12657:12688   */\n      swap5\n      pop\n        /* \"#utility.yul\":12531:12535   */\n      0x20\n        /* \"#utility.yul\":12528:12529   */\n      dup2\n        /* \"#utility.yul\":12524:12536   */\n      add\n        /* \"#utility.yul\":12519:12536   */\n      swap1\n      pop\n        /* \"#utility.yul\":12494:12702   */\n      jump(tag_269)\n    tag_271:\n        /* \"#utility.yul\":12730:12736   */\n      dup7\n        /* \"#utility.yul\":12721:12728   */\n      dup4\n        /* \"#utility.yul\":12718:12737   */\n      lt\n        /* \"#utility.yul\":12715:12894   */\n      iszero\n      tag_272\n      jumpi\n        /* \"#utility.yul\":12788:12797   */\n      dup5\n        /* \"#utility.yul\":12783:12786   */\n      dup10\n        /* \"#utility.yul\":12779:12798   */\n      add\n        /* \"#utility.yul\":12773:12799   */\n      mload\n        /* \"#utility.yul\":12831:12879   */\n      tag_273\n        /* \"#utility.yul\":12873:12877   */\n      0x1f\n        /* \"#utility.yul\":12865:12871   */\n      dup10\n        /* \"#utility.yul\":12861:12878   */\n      and\n        /* \"#utility.yul\":12850:12859   */\n      dup3\n        /* \"#utility.yul\":12831:12879   */\n      tag_125\n      jump\t// in\n    tag_273:\n        /* \"#utility.yul\":12823:12829   */\n      dup4\n        /* \"#utility.yul\":12816:12880   */\n      sstore\n        /* \"#utility.yul\":12738:12894   */\n      pop\n        /* \"#utility.yul\":12715:12894   */\n    tag_272:\n        /* \"#utility.yul\":12940:12941   */\n      0x01\n        /* \"#utility.yul\":12936:12937   */\n      0x02\n        /* \"#utility.yul\":12928:12934   */\n      dup9\n        /* \"#utility.yul\":12924:12938   */\n      mul\n        /* \"#utility.yul\":12920:12942   */\n      add\n        /* \"#utility.yul\":12914:12918   */\n      dup9\n        /* \"#utility.yul\":12907:12943   */\n      sstore\n        /* \"#utility.yul\":12342:12953   */\n      pop\n      pop\n      pop\n        /* \"#utility.yul\":12305:13192   */\n    tag_264:\n      pop\n        /* \"#utility.yul\":11895:13198   */\n      pop\n      pop\n      pop\n        /* \"#utility.yul\":11803:13198   */\n      pop\n      pop\n      jump\t// out\n        /* \"#utility.yul\":13204:13517   */\n    tag_40:\n        /* \"#utility.yul\":13317:13321   */\n      0x00\n        /* \"#utility.yul\":13355:13357   */\n      0x20\n        /* \"#utility.yul\":13344:13353   */\n      dup3\n        /* \"#utility.yul\":13340:13358   */\n      add\n        /* \"#utility.yul\":13332:13358   */\n      swap1\n      pop\n        /* \"#utility.yul\":13404:13413   */\n      dup2\n        /* \"#utility.yul\":13398:13402   */\n      dup2\n        /* \"#utility.yul\":13394:13414   */\n      sub\n        /* \"#utility.yul\":13390:13391   */\n      0x00\n        /* \"#utility.yul\":13379:13388   */\n      dup4\n        /* \"#utility.yul\":13375:13392   */\n      add\n        /* \"#utility.yul\":13368:13415   */\n      mstore\n        /* \"#utility.yul\":13432:13510   */\n      tag_275\n        /* \"#utility.yul\":13505:13509   */\n      dup2\n        /* \"#utility.yul\":13496:13502   */\n      dup5\n        /* \"#utility.yul\":13432:13510   */\n      tag_105\n      jump\t// in\n    tag_275:\n        /* \"#utility.yul\":13424:13510   */\n      swap1\n      pop\n        /* \"#utility.yul\":13204:13517   */\n      swap3\n      swap2\n      pop\n      pop\n      jump\t// out\n        /* \"#utility.yul\":13523:13748   */\n    tag_127:\n        /* \"#utility.yul\":13663:13697   */\n      0x4e6f2063726564656e7469616c7320666f756e6420666f72207468697320706c\n        /* \"#utility.yul\":13659:13660   */\n      0x00\n        /* \"#utility.yul\":13651:13657   */\n      dup3\n        /* \"#utility.yul\":13647:13661   */\n      add\n        /* \"#utility.yul\":13640:13698   */\n      mstore\n        /* \"#utility.yul\":13732:13740   */\n      0x6174666f726d0000000000000000000000000000000000000000000000000000\n        /* \"#utility.yul\":13727:13729   */\n      0x20\n        /* \"#utility.yul\":13719:13725   */\n      dup3\n        /* \"#utility.yul\":13715:13730   */\n      add\n        /* \"#utility.yul\":13708:13741   */\n      mstore\n        /* \"#utility.yul\":13523:13748   */\n      pop\n      jump\t// out\n        /* \"#utility.yul\":13754:14120   */\n    tag_128:\n        /* \"#utility.yul\":13896:13899   */\n      0x00\n        /* \"#utility.yul\":13917:13984   */\n      tag_278\n        /* \"#utility.yul\":13981:13983   */\n      0x26\n        /* \"#utility.yul\":13976:13979   */\n      dup4\n        /* \"#utility.yul\":13917:13984   */\n      tag_103\n      jump\t// in\n    tag_278:\n        /* \"#utility.yul\":13910:13984   */\n      swap2\n      pop\n        /* \"#utility.yul\":13993:14086   */\n      tag_279\n        /* \"#utility.yul\":14082:14085   */\n      dup3\n        /* \"#utility.yul\":13993:14086   */\n      tag_127\n      jump\t// in\n    tag_279:\n        /* \"#utility.yul\":14111:14113   */\n      0x40\n        /* \"#utility.yul\":14106:14109   */\n      dup3\n        /* \"#utility.yul\":14102:14114   */\n      add\n        /* \"#utility.yul\":14095:14114   */\n      swap1\n      pop\n        /* \"#utility.yul\":13754:14120   */\n      swap2\n      swap1\n      pop\n      jump\t// out\n        /* \"#utility.yul\":14126:14545   */\n    tag_47:\n        /* \"#utility.yul\":14292:14296   */\n      0x00\n        /* \"#utility.yul\":14330:14332   */\n      0x20\n        /* \"#utility.yul\":14319:14328   */\n      dup3\n        /* \"#utility.yul\":14315:14333   */\n      add\n        /* \"#utility.yul\":14307:14333   */\n      swap1\n      pop\n        /* \"#utility.yul\":14379:14388   */\n      dup2\n        /* \"#utility.yul\":14373:14377   */\n      dup2\n        /* \"#utility.yul\":14369:14389   */\n      sub\n        /* \"#utility.yul\":14365:14366   */\n      0x00\n        /* \"#utility.yul\":14354:14363   */\n      dup4\n        /* \"#utility.yul\":14350:14367   */\n      add\n        /* \"#utility.yul\":14343:14390   */\n      mstore\n        /* \"#utility.yul\":14407:14538   */\n      tag_281\n        /* \"#utility.yul\":14533:14537   */\n      dup2\n        /* \"#utility.yul\":14407:14538   */\n      tag_128\n      jump\t// in\n    tag_281:\n        /* \"#utility.yul\":14399:14538   */\n      swap1\n      pop\n        /* \"#utility.yul\":14126:14545   */\n      swap2\n      swap1\n      pop\n      jump\t// out\n        /* \"#utility.yul\":14551:14781   */\n    tag_129:\n        /* \"#utility.yul\":14691:14725   */\n      0x4f6e6c792061646d696e73206f72206f776e65722063616e2063616c6c207468\n        /* \"#utility.yul\":14687:14688   */\n      0x00\n        /* \"#utility.yul\":14679:14685   */\n      dup3\n        /* \"#utility.yul\":14675:14689   */\n      add\n        /* \"#utility.yul\":14668:14726   */\n      mstore\n        /* \"#utility.yul\":14760:14773   */\n      0x69732066756e6374696f6e000000000000000000000000000000000000000000\n        /* \"#utility.yul\":14755:14757   */\n      0x20\n        /* \"#utility.yul\":14747:14753   */\n      dup3\n        /* \"#utility.yul\":14743:14758   */\n      add\n        /* \"#utility.yul\":14736:14774   */\n      mstore\n        /* \"#utility.yul\":14551:14781   */\n      pop\n      jump\t// out\n        /* \"#utility.yul\":14787:15153   */\n    tag_130:\n        /* \"#utility.yul\":14929:14932   */\n      0x00\n        /* \"#utility.yul\":14950:15017   */\n      tag_284\n        /* \"#utility.yul\":15014:15016   */\n      0x2b\n        /* \"#utility.yul\":15009:15012   */\n      dup4\n        /* \"#utility.yul\":14950:15017   */\n      tag_103\n      jump\t// in\n    tag_284:\n        /* \"#utility.yul\":14943:15017   */\n      swap2\n      pop\n        /* \"#utility.yul\":15026:15119   */\n      tag_285\n        /* \"#utility.yul\":15115:15118   */\n      dup3\n        /* \"#utility.yul\":15026:15119   */\n      tag_129\n      jump\t// in\n    tag_285:\n        /* \"#utility.yul\":15144:15146   */\n      0x40\n        /* \"#utility.yul\":15139:15142   */\n      dup3\n        /* \"#utility.yul\":15135:15147   */\n      add\n        /* \"#utility.yul\":15128:15147   */\n      swap1\n      pop\n        /* \"#utility.yul\":14787:15153   */\n      swap2\n      swap1\n      pop\n      jump\t// out\n        /* \"#utility.yul\":15159:15578   */\n    tag_67:\n        /* \"#utility.yul\":15325:15329   */\n      0x00\n        /* \"#utility.yul\":15363:15365   */\n      0x20\n        /* \"#utility.yul\":15352:15361   */\n      dup3\n        /* \"#utility.yul\":15348:15366   */\n      add\n        /* \"#utility.yul\":15340:15366   */\n      swap1\n      pop\n        /* \"#utility.yul\":15412:15421   */\n      dup2\n        /* \"#utility.yul\":15406:15410   */\n      dup2\n        /* \"#utility.yul\":15402:15422   */\n      sub\n        /* \"#utility.yul\":15398:15399   */\n      0x00\n        /* \"#utility.yul\":15387:15396   */\n      dup4\n        /* \"#utility.yul\":15383:15400   */\n      add\n        /* \"#utility.yul\":15376:15423   */\n      mstore\n        /* \"#utility.yul\":15440:15571   */\n      tag_287\n        /* \"#utility.yul\":15566:15570   */\n      dup2\n        /* \"#utility.yul\":15440:15571   */\n      tag_130\n      jump\t// in\n    tag_287:\n        /* \"#utility.yul\":15432:15571   */\n      swap1\n      pop\n        /* \"#utility.yul\":15159:15578   */\n      swap2\n      swap1\n      pop\n      jump\t// out\n\n    auxdata: 0xa264697066735822122066e0ca2c7415b00c0778b721255f10443b19a8dbc0dc3ca4ea7f2967f433b9ee64736f6c634300081a0033\n}\n",
				"bytecode": {
					"linkReferences": {},
					"object": "6080604052348015600e575f80fd5b50335f806101000a81548173ffffffffffffffffffffffffffffffffffffffff021916908373ffffffffffffffffffffffffffffffffffffffff1602179055506111998061005b5f395ff3fe608060405234801561000f575f80fd5b5060043610610055575f3560e01c80631785f53c1461005957806322aa9e971461007557806359737bfc1461009157806370480275146100c2578063f2e8c725146100de575b5f80fd5b610073600480360381019061006e9190610990565b6100fa565b005b61008f600480360381019061008a9190610af7565b610221565b005b6100ab60048036038101906100a69190610b9b565b61030f565b6040516100b9929190610c42565b60405180910390f35b6100dc60048036038101906100d79190610990565b610554565b005b6100f860048036038101906100f39190610b9b565b61067c565b005b5f8054906101000a900473ffffffffffffffffffffffffffffffffffffffff1673ffffffffffffffffffffffffffffffffffffffff163373ffffffffffffffffffffffffffffffffffffffff1614610187576040517f08c379a000000000000000000000000000000000000000000000000000000000815260040161017e90610ce7565b60405180910390fd5b5f60025f8373ffffffffffffffffffffffffffffffffffffffff1673ffffffffffffffffffffffffffffffffffffffff1681526020019081526020015f205f6101000a81548160ff0219169083151502179055508073ffffffffffffffffffffffffffffffffffffffff167fa3b62bc36326052d97ea62d63c3d60308ed4c3ea8ac079dd8499f1e9c4f80c0f60405160405180910390a250565b60405180604001604052808381526020018281525060015f3373ffffffffffffffffffffffffffffffffffffffff1673ffffffffffffffffffffffffffffffffffffffff1681526020019081526020015f20846040516102819190610d3f565b90815260200160405180910390205f820151815f0190816102a29190610f58565b5060208201518160010190816102b89190610f58565b509050503373ffffffffffffffffffffffffffffffffffffffff167f750313e45caf40b2079d26ce7a9f02d1c0797ec7389dfc8755a16680cf1c2006846040516103029190611027565b60405180910390a2505050565b6060805f60015f3373ffffffffffffffffffffffffffffffffffffffff1673ffffffffffffffffffffffffffffffffffffffff1681526020019081526020015f208460405161035e9190610d3f565b90815260200160405180910390205f01805461037990610d82565b9050116103bb576040517f08c379a00000000000000000000000000000000000000000000000000000000081526004016103b2906110b7565b60405180910390fd5b5f60015f3373ffffffffffffffffffffffffffffffffffffffff1673ffffffffffffffffffffffffffffffffffffffff1681526020019081526020015f20846040516104079190610d3f565b90815260200160405180910390206040518060400160405290815f8201805461042f90610d82565b80601f016020809104026020016040519081016040528092919081815260200182805461045b90610d82565b80156104a65780601f1061047d576101008083540402835291602001916104a6565b820191905f5260205f20905b81548152906001019060200180831161048957829003601f168201915b505050505081526020016001820180546104bf90610d82565b80601f01602080910402602001604051908101604052809291908181526020018280546104eb90610d82565b80156105365780601f1061050d57610100808354040283529160200191610536565b820191905f5260205f20905b81548152906001019060200180831161051957829003601f168201915b5050505050815250509050805f015181602001519250925050915091565b5f8054906101000a900473ffffffffffffffffffffffffffffffffffffffff1673ffffffffffffffffffffffffffffffffffffffff163373ffffffffffffffffffffffffffffffffffffffff16146105e1576040517f08c379a00000000000000000000000000000000000000000000000000000000081526004016105d890610ce7565b60405180910390fd5b600160025f8373ffffffffffffffffffffffffffffffffffffffff1673ffffffffffffffffffffffffffffffffffffffff1681526020019081526020015f205f6101000a81548160ff0219169083151502179055508073ffffffffffffffffffffffffffffffffffffffff167f44d6d25963f097ad14f29f06854a01f575648a1ef82f30e562ccd3889717e33960405160405180910390a250565b60025f3373ffffffffffffffffffffffffffffffffffffffff1673ffffffffffffffffffffffffffffffffffffffff1681526020019081526020015f205f9054906101000a900460ff168061071b57505f8054906101000a900473ffffffffffffffffffffffffffffffffffffffff1673ffffffffffffffffffffffffffffffffffffffff163373ffffffffffffffffffffffffffffffffffffffff16145b61075a576040517f08c379a000000000000000000000000000000000000000000000000000000000815260040161075190611145565b60405180910390fd5b5f60015f3373ffffffffffffffffffffffffffffffffffffffff1673ffffffffffffffffffffffffffffffffffffffff1681526020019081526020015f20826040516107a69190610d3f565b90815260200160405180910390205f0180546107c190610d82565b905011610803576040517f08c379a00000000000000000000000000000000000000000000000000000000081526004016107fa906110b7565b60405180910390fd5b60015f3373ffffffffffffffffffffffffffffffffffffffff1673ffffffffffffffffffffffffffffffffffffffff1681526020019081526020015f208160405161084e9190610d3f565b90815260200160405180910390205f8082015f61086b91906108cd565b600182015f61087a91906108cd565b50503373ffffffffffffffffffffffffffffffffffffffff167f62fa08023f4fcd46901d0efc1ee730d9fca49a3bfd61332d5f37946a80e41869826040516108c29190611027565b60405180910390a250565b5080546108d990610d82565b5f825580601f106108ea5750610907565b601f0160209004905f5260205f2090810190610906919061090a565b5b50565b5b80821115610921575f815f90555060010161090b565b5090565b5f604051905090565b5f80fd5b5f80fd5b5f73ffffffffffffffffffffffffffffffffffffffff82169050919050565b5f61095f82610936565b9050919050565b61096f81610955565b8114610979575f80fd5b50565b5f8135905061098a81610966565b92915050565b5f602082840312156109a5576109a461092e565b5b5f6109b28482850161097c565b91505092915050565b5f80fd5b5f80fd5b5f601f19601f8301169050919050565b7f4e487b71000000000000000000000000000000000000000000000000000000005f52604160045260245ffd5b610a09826109c3565b810181811067ffffffffffffffff82111715610a2857610a276109d3565b5b80604052505050565b5f610a3a610925565b9050610a468282610a00565b919050565b5f67ffffffffffffffff821115610a6557610a646109d3565b5b610a6e826109c3565b9050602081019050919050565b828183375f83830152505050565b5f610a9b610a9684610a4b565b610a31565b905082815260208101848484011115610ab757610ab66109bf565b5b610ac2848285610a7b565b509392505050565b5f82601f830112610ade57610add6109bb565b5b8135610aee848260208601610a89565b91505092915050565b5f805f60608486031215610b0e57610b0d61092e565b5b5f84013567ffffffffffffffff811115610b2b57610b2a610932565b5b610b3786828701610aca565b935050602084013567ffffffffffffffff811115610b5857610b57610932565b5b610b6486828701610aca565b925050604084013567ffffffffffffffff811115610b8557610b84610932565b5b610b9186828701610aca565b9150509250925092565b5f60208284031215610bb057610baf61092e565b5b5f82013567ffffffffffffffff811115610bcd57610bcc610932565b5b610bd984828501610aca565b91505092915050565b5f81519050919050565b5f82825260208201905092915050565b8281835e5f83830152505050565b5f610c1482610be2565b610c1e8185610bec565b9350610c2e818560208601610bfc565b610c37816109c3565b840191505092915050565b5f6040820190508181035f830152610c5a8185610c0a565b90508181036020830152610c6e8184610c0a565b90509392505050565b7f4f6e6c7920636f6e7472616374206f776e65722063616e2063616c6c207468695f8201527f732066756e6374696f6e00000000000000000000000000000000000000000000602082015250565b5f610cd1602a83610bec565b9150610cdc82610c77565b604082019050919050565b5f6020820190508181035f830152610cfe81610cc5565b9050919050565b5f81905092915050565b5f610d1982610be2565b610d238185610d05565b9350610d33818560208601610bfc565b80840191505092915050565b5f610d4a8284610d0f565b915081905092915050565b7f4e487b71000000000000000000000000000000000000000000000000000000005f52602260045260245ffd5b5f6002820490506001821680610d9957607f821691505b602082108103610dac57610dab610d55565b5b50919050565b5f819050815f5260205f209050919050565b5f6020601f8301049050919050565b5f82821b905092915050565b5f60088302610e0e7fffffffffffffffffffffffffffffffffffffffffffffffffffffffffffffffff82610dd3565b610e188683610dd3565b95508019841693508086168417925050509392505050565b5f819050919050565b5f819050919050565b5f610e5c610e57610e5284610e30565b610e39565b610e30565b9050919050565b5f819050919050565b610e7583610e42565b610e89610e8182610e63565b848454610ddf565b825550505050565b5f90565b610e9d610e91565b610ea8818484610e6c565b505050565b5b81811015610ecb57610ec05f82610e95565b600181019050610eae565b5050565b601f821115610f1057610ee181610db2565b610eea84610dc4565b81016020851015610ef9578190505b610f0d610f0585610dc4565b830182610ead565b50505b505050565b5f82821c905092915050565b5f610f305f1984600802610f15565b1980831691505092915050565b5f610f488383610f21565b9150826002028217905092915050565b610f6182610be2565b67ffffffffffffffff811115610f7a57610f796109d3565b5b610f848254610d82565b610f8f828285610ecf565b5f60209050601f831160018114610fc0575f8415610fae578287015190505b610fb88582610f3d565b86555061101f565b601f198416610fce86610db2565b5f5b82811015610ff557848901518255600182019150602085019450602081019050610fd0565b86831015611012578489015161100e601f891682610f21565b8355505b6001600288020188555050505b505050505050565b5f6020820190508181035f83015261103f8184610c0a565b905092915050565b7f4e6f2063726564656e7469616c7320666f756e6420666f72207468697320706c5f8201527f6174666f726d0000000000000000000000000000000000000000000000000000602082015250565b5f6110a1602683610bec565b91506110ac82611047565b604082019050919050565b5f6020820190508181035f8301526110ce81611095565b9050919050565b7f4f6e6c792061646d696e73206f72206f776e65722063616e2063616c6c2074685f8201527f69732066756e6374696f6e000000000000000000000000000000000000000000602082015250565b5f61112f602b83610bec565b915061113a826110d5565b604082019050919050565b5f6020820190508181035f83015261115c81611123565b905091905056fea264697066735822122066e0ca2c7415b00c0778b721255f10443b19a8dbc0dc3ca4ea7f2967f433b9ee64736f6c634300081a0033",
					"opcodes": "PUSH1 0x80 PUSH1 0x40 MSTORE CALLVALUE DUP1 ISZERO PUSH1 0xE JUMPI PUSH0 DUP1 REVERT JUMPDEST POP CALLER PUSH0 DUP1 PUSH2 0x100 EXP DUP2 SLOAD DUP2 PUSH20 0xFFFFFFFFFFFFFFFFFFFFFFFFFFFFFFFFFFFFFFFF MUL NOT AND SWAP1 DUP4 PUSH20 0xFFFFFFFFFFFFFFFFFFFFFFFFFFFFFFFFFFFFFFFF AND MUL OR SWAP1 SSTORE POP PUSH2 0x1199 DUP1 PUSH2 0x5B PUSH0 CODECOPY PUSH0 RETURN INVALID PUSH1 0x80 PUSH1 0x40 MSTORE CALLVALUE DUP1 ISZERO PUSH2 0xF JUMPI PUSH0 DUP1 REVERT JUMPDEST POP PUSH1 0x4 CALLDATASIZE LT PUSH2 0x55 JUMPI PUSH0 CALLDATALOAD PUSH1 0xE0 SHR DUP1 PUSH4 0x1785F53C EQ PUSH2 0x59 JUMPI DUP1 PUSH4 0x22AA9E97 EQ PUSH2 0x75 JUMPI DUP1 PUSH4 0x59737BFC EQ PUSH2 0x91 JUMPI DUP1 PUSH4 0x70480275 EQ PUSH2 0xC2 JUMPI DUP1 PUSH4 0xF2E8C725 EQ PUSH2 0xDE JUMPI JUMPDEST PUSH0 DUP1 REVERT JUMPDEST PUSH2 0x73 PUSH1 0x4 DUP1 CALLDATASIZE SUB DUP2 ADD SWAP1 PUSH2 0x6E SWAP2 SWAP1 PUSH2 0x990 JUMP JUMPDEST PUSH2 0xFA JUMP JUMPDEST STOP JUMPDEST PUSH2 0x8F PUSH1 0x4 DUP1 CALLDATASIZE SUB DUP2 ADD SWAP1 PUSH2 0x8A SWAP2 SWAP1 PUSH2 0xAF7 JUMP JUMPDEST PUSH2 0x221 JUMP JUMPDEST STOP JUMPDEST PUSH2 0xAB PUSH1 0x4 DUP1 CALLDATASIZE SUB DUP2 ADD SWAP1 PUSH2 0xA6 SWAP2 SWAP1 PUSH2 0xB9B JUMP JUMPDEST PUSH2 0x30F JUMP JUMPDEST PUSH1 0x40 MLOAD PUSH2 0xB9 SWAP3 SWAP2 SWAP1 PUSH2 0xC42 JUMP JUMPDEST PUSH1 0x40 MLOAD DUP1 SWAP2 SUB SWAP1 RETURN JUMPDEST PUSH2 0xDC PUSH1 0x4 DUP1 CALLDATASIZE SUB DUP2 ADD SWAP1 PUSH2 0xD7 SWAP2 SWAP1 PUSH2 0x990 JUMP JUMPDEST PUSH2 0x554 JUMP JUMPDEST STOP JUMPDEST PUSH2 0xF8 PUSH1 0x4 DUP1 CALLDATASIZE SUB DUP2 ADD SWAP1 PUSH2 0xF3 SWAP2 SWAP1 PUSH2 0xB9B JUMP JUMPDEST PUSH2 0x67C JUMP JUMPDEST STOP JUMPDEST PUSH0 DUP1 SLOAD SWAP1 PUSH2 0x100 EXP SWAP1 DIV PUSH20 0xFFFFFFFFFFFFFFFFFFFFFFFFFFFFFFFFFFFFFFFF AND PUSH20 0xFFFFFFFFFFFFFFFFFFFFFFFFFFFFFFFFFFFFFFFF AND CALLER PUSH20 0xFFFFFFFFFFFFFFFFFFFFFFFFFFFFFFFFFFFFFFFF AND EQ PUSH2 0x187 JUMPI PUSH1 0x40 MLOAD PUSH32 0x8C379A000000000000000000000000000000000000000000000000000000000 DUP2 MSTORE PUSH1 0x4 ADD PUSH2 0x17E SWAP1 PUSH2 0xCE7 JUMP JUMPDEST PUSH1 0x40 MLOAD DUP1 SWAP2 SUB SWAP1 REVERT JUMPDEST PUSH0 PUSH1 0x2 PUSH0 DUP4 PUSH20 0xFFFFFFFFFFFFFFFFFFFFFFFFFFFFFFFFFFFFFFFF AND PUSH20 0xFFFFFFFFFFFFFFFFFFFFFFFFFFFFFFFFFFFFFFFF AND DUP2 MSTORE PUSH1 0x20 ADD SWAP1 DUP2 MSTORE PUSH1 0x20 ADD PUSH0 KECCAK256 PUSH0 PUSH2 0x100 EXP DUP2 SLOAD DUP2 PUSH1 0xFF MUL NOT AND SWAP1 DUP4 ISZERO ISZERO MUL OR SWAP1 SSTORE POP DUP1 PUSH20 0xFFFFFFFFFFFFFFFFFFFFFFFFFFFFFFFFFFFFFFFF AND PUSH32 0xA3B62BC36326052D97EA62D63C3D60308ED4C3EA8AC079DD8499F1E9C4F80C0F PUSH1 0x40 MLOAD PUSH1 0x40 MLOAD DUP1 SWAP2 SUB SWAP1 LOG2 POP JUMP JUMPDEST PUSH1 0x40 MLOAD DUP1 PUSH1 0x40 ADD PUSH1 0x40 MSTORE DUP1 DUP4 DUP2 MSTORE PUSH1 0x20 ADD DUP3 DUP2 MSTORE POP PUSH1 0x1 PUSH0 CALLER PUSH20 0xFFFFFFFFFFFFFFFFFFFFFFFFFFFFFFFFFFFFFFFF AND PUSH20 0xFFFFFFFFFFFFFFFFFFFFFFFFFFFFFFFFFFFFFFFF AND DUP2 MSTORE PUSH1 0x20 ADD SWAP1 DUP2 MSTORE PUSH1 0x20 ADD PUSH0 KECCAK256 DUP5 PUSH1 0x40 MLOAD PUSH2 0x281 SWAP2 SWAP1 PUSH2 0xD3F JUMP JUMPDEST SWAP1 DUP2 MSTORE PUSH1 0x20 ADD PUSH1 0x40 MLOAD DUP1 SWAP2 SUB SWAP1 KECCAK256 PUSH0 DUP3 ADD MLOAD DUP2 PUSH0 ADD SWAP1 DUP2 PUSH2 0x2A2 SWAP2 SWAP1 PUSH2 0xF58 JUMP JUMPDEST POP PUSH1 0x20 DUP3 ADD MLOAD DUP2 PUSH1 0x1 ADD SWAP1 DUP2 PUSH2 0x2B8 SWAP2 SWAP1 PUSH2 0xF58 JUMP JUMPDEST POP SWAP1 POP POP CALLER PUSH20 0xFFFFFFFFFFFFFFFFFFFFFFFFFFFFFFFFFFFFFFFF AND PUSH32 0x750313E45CAF40B2079D26CE7A9F02D1C0797EC7389DFC8755A16680CF1C2006 DUP5 PUSH1 0x40 MLOAD PUSH2 0x302 SWAP2 SWAP1 PUSH2 0x1027 JUMP JUMPDEST PUSH1 0x40 MLOAD DUP1 SWAP2 SUB SWAP1 LOG2 POP POP POP JUMP JUMPDEST PUSH1 0x60 DUP1 PUSH0 PUSH1 0x1 PUSH0 CALLER PUSH20 0xFFFFFFFFFFFFFFFFFFFFFFFFFFFFFFFFFFFFFFFF AND PUSH20 0xFFFFFFFFFFFFFFFFFFFFFFFFFFFFFFFFFFFFFFFF AND DUP2 MSTORE PUSH1 0x20 ADD SWAP1 DUP2 MSTORE PUSH1 0x20 ADD PUSH0 KECCAK256 DUP5 PUSH1 0x40 MLOAD PUSH2 0x35E SWAP2 SWAP1 PUSH2 0xD3F JUMP JUMPDEST SWAP1 DUP2 MSTORE PUSH1 0x20 ADD PUSH1 0x40 MLOAD DUP1 SWAP2 SUB SWAP1 KECCAK256 PUSH0 ADD DUP1 SLOAD PUSH2 0x379 SWAP1 PUSH2 0xD82 JUMP JUMPDEST SWAP1 POP GT PUSH2 0x3BB JUMPI PUSH1 0x40 MLOAD PUSH32 0x8C379A000000000000000000000000000000000000000000000000000000000 DUP2 MSTORE PUSH1 0x4 ADD PUSH2 0x3B2 SWAP1 PUSH2 0x10B7 JUMP JUMPDEST PUSH1 0x40 MLOAD DUP1 SWAP2 SUB SWAP1 REVERT JUMPDEST PUSH0 PUSH1 0x1 PUSH0 CALLER PUSH20 0xFFFFFFFFFFFFFFFFFFFFFFFFFFFFFFFFFFFFFFFF AND PUSH20 0xFFFFFFFFFFFFFFFFFFFFFFFFFFFFFFFFFFFFFFFF AND DUP2 MSTORE PUSH1 0x20 ADD SWAP1 DUP2 MSTORE PUSH1 0x20 ADD PUSH0 KECCAK256 DUP5 PUSH1 0x40 MLOAD PUSH2 0x407 SWAP2 SWAP1 PUSH2 0xD3F JUMP JUMPDEST SWAP1 DUP2 MSTORE PUSH1 0x20 ADD PUSH1 0x40 MLOAD DUP1 SWAP2 SUB SWAP1 KECCAK256 PUSH1 0x40 MLOAD DUP1 PUSH1 0x40 ADD PUSH1 0x40 MSTORE SWAP1 DUP2 PUSH0 DUP3 ADD DUP1 SLOAD PUSH2 0x42F SWAP1 PUSH2 0xD82 JUMP JUMPDEST DUP1 PUSH1 0x1F ADD PUSH1 0x20 DUP1 SWAP2 DIV MUL PUSH1 0x20 ADD PUSH1 0x40 MLOAD SWAP1 DUP2 ADD PUSH1 0x40 MSTORE DUP1 SWAP3 SWAP2 SWAP1 DUP2 DUP2 MSTORE PUSH1 0x20 ADD DUP3 DUP1 SLOAD PUSH2 0x45B SWAP1 PUSH2 0xD82 JUMP JUMPDEST DUP1 ISZERO PUSH2 0x4A6 JUMPI DUP1 PUSH1 0x1F LT PUSH2 0x47D JUMPI PUSH2 0x100 DUP1 DUP4 SLOAD DIV MUL DUP4 MSTORE SWAP2 PUSH1 0x20 ADD SWAP2 PUSH2 0x4A6 JUMP JUMPDEST DUP3 ADD SWAP2 SWAP1 PUSH0 MSTORE PUSH1 0x20 PUSH0 KECCAK256 SWAP1 JUMPDEST DUP2 SLOAD DUP2 MSTORE SWAP1 PUSH1 0x1 ADD SWAP1 PUSH1 0x20 ADD DUP1 DUP4 GT PUSH2 0x489 JUMPI DUP3 SWAP1 SUB PUSH1 0x1F AND DUP3 ADD SWAP2 JUMPDEST POP POP POP POP POP DUP2 MSTORE PUSH1 0x20 ADD PUSH1 0x1 DUP3 ADD DUP1 SLOAD PUSH2 0x4BF SWAP1 PUSH2 0xD82 JUMP JUMPDEST DUP1 PUSH1 0x1F ADD PUSH1 0x20 DUP1 SWAP2 DIV MUL PUSH1 0x20 ADD PUSH1 0x40 MLOAD SWAP1 DUP2 ADD PUSH1 0x40 MSTORE DUP1 SWAP3 SWAP2 SWAP1 DUP2 DUP2 MSTORE PUSH1 0x20 ADD DUP3 DUP1 SLOAD PUSH2 0x4EB SWAP1 PUSH2 0xD82 JUMP JUMPDEST DUP1 ISZERO PUSH2 0x536 JUMPI DUP1 PUSH1 0x1F LT PUSH2 0x50D JUMPI PUSH2 0x100 DUP1 DUP4 SLOAD DIV MUL DUP4 MSTORE SWAP2 PUSH1 0x20 ADD SWAP2 PUSH2 0x536 JUMP JUMPDEST DUP3 ADD SWAP2 SWAP1 PUSH0 MSTORE PUSH1 0x20 PUSH0 KECCAK256 SWAP1 JUMPDEST DUP2 SLOAD DUP2 MSTORE SWAP1 PUSH1 0x1 ADD SWAP1 PUSH1 0x20 ADD DUP1 DUP4 GT PUSH2 0x519 JUMPI DUP3 SWAP1 SUB PUSH1 0x1F AND DUP3 ADD SWAP2 JUMPDEST POP POP POP POP POP DUP2 MSTORE POP POP SWAP1 POP DUP1 PUSH0 ADD MLOAD DUP2 PUSH1 0x20 ADD MLOAD SWAP3 POP SWAP3 POP POP SWAP2 POP SWAP2 JUMP JUMPDEST PUSH0 DUP1 SLOAD SWAP1 PUSH2 0x100 EXP SWAP1 DIV PUSH20 0xFFFFFFFFFFFFFFFFFFFFFFFFFFFFFFFFFFFFFFFF AND PUSH20 0xFFFFFFFFFFFFFFFFFFFFFFFFFFFFFFFFFFFFFFFF AND CALLER PUSH20 0xFFFFFFFFFFFFFFFFFFFFFFFFFFFFFFFFFFFFFFFF AND EQ PUSH2 0x5E1 JUMPI PUSH1 0x40 MLOAD PUSH32 0x8C379A000000000000000000000000000000000000000000000000000000000 DUP2 MSTORE PUSH1 0x4 ADD PUSH2 0x5D8 SWAP1 PUSH2 0xCE7 JUMP JUMPDEST PUSH1 0x40 MLOAD DUP1 SWAP2 SUB SWAP1 REVERT JUMPDEST PUSH1 0x1 PUSH1 0x2 PUSH0 DUP4 PUSH20 0xFFFFFFFFFFFFFFFFFFFFFFFFFFFFFFFFFFFFFFFF AND PUSH20 0xFFFFFFFFFFFFFFFFFFFFFFFFFFFFFFFFFFFFFFFF AND DUP2 MSTORE PUSH1 0x20 ADD SWAP1 DUP2 MSTORE PUSH1 0x20 ADD PUSH0 KECCAK256 PUSH0 PUSH2 0x100 EXP DUP2 SLOAD DUP2 PUSH1 0xFF MUL NOT AND SWAP1 DUP4 ISZERO ISZERO MUL OR SWAP1 SSTORE POP DUP1 PUSH20 0xFFFFFFFFFFFFFFFFFFFFFFFFFFFFFFFFFFFFFFFF AND PUSH32 0x44D6D25963F097AD14F29F06854A01F575648A1EF82F30E562CCD3889717E339 PUSH1 0x40 MLOAD PUSH1 0x40 MLOAD DUP1 SWAP2 SUB SWAP1 LOG2 POP JUMP JUMPDEST PUSH1 0x2 PUSH0 CALLER PUSH20 0xFFFFFFFFFFFFFFFFFFFFFFFFFFFFFFFFFFFFFFFF AND PUSH20 0xFFFFFFFFFFFFFFFFFFFFFFFFFFFFFFFFFFFFFFFF AND DUP2 MSTORE PUSH1 0x20 ADD SWAP1 DUP2 MSTORE PUSH1 0x20 ADD PUSH0 KECCAK256 PUSH0 SWAP1 SLOAD SWAP1 PUSH2 0x100 EXP SWAP1 DIV PUSH1 0xFF AND DUP1 PUSH2 0x71B JUMPI POP PUSH0 DUP1 SLOAD SWAP1 PUSH2 0x100 EXP SWAP1 DIV PUSH20 0xFFFFFFFFFFFFFFFFFFFFFFFFFFFFFFFFFFFFFFFF AND PUSH20 0xFFFFFFFFFFFFFFFFFFFFFFFFFFFFFFFFFFFFFFFF AND CALLER PUSH20 0xFFFFFFFFFFFFFFFFFFFFFFFFFFFFFFFFFFFFFFFF AND EQ JUMPDEST PUSH2 0x75A JUMPI PUSH1 0x40 MLOAD PUSH32 0x8C379A000000000000000000000000000000000000000000000000000000000 DUP2 MSTORE PUSH1 0x4 ADD PUSH2 0x751 SWAP1 PUSH2 0x1145 JUMP JUMPDEST PUSH1 0x40 MLOAD DUP1 SWAP2 SUB SWAP1 REVERT JUMPDEST PUSH0 PUSH1 0x1 PUSH0 CALLER PUSH20 0xFFFFFFFFFFFFFFFFFFFFFFFFFFFFFFFFFFFFFFFF AND PUSH20 0xFFFFFFFFFFFFFFFFFFFFFFFFFFFFFFFFFFFFFFFF AND DUP2 MSTORE PUSH1 0x20 ADD SWAP1 DUP2 MSTORE PUSH1 0x20 ADD PUSH0 KECCAK256 DUP3 PUSH1 0x40 MLOAD PUSH2 0x7A6 SWAP2 SWAP1 PUSH2 0xD3F JUMP JUMPDEST SWAP1 DUP2 MSTORE PUSH1 0x20 ADD PUSH1 0x40 MLOAD DUP1 SWAP2 SUB SWAP1 KECCAK256 PUSH0 ADD DUP1 SLOAD PUSH2 0x7C1 SWAP1 PUSH2 0xD82 JUMP JUMPDEST SWAP1 POP GT PUSH2 0x803 JUMPI PUSH1 0x40 MLOAD PUSH32 0x8C379A000000000000000000000000000000000000000000000000000000000 DUP2 MSTORE PUSH1 0x4 ADD PUSH2 0x7FA SWAP1 PUSH2 0x10B7 JUMP JUMPDEST PUSH1 0x40 MLOAD DUP1 SWAP2 SUB SWAP1 REVERT JUMPDEST PUSH1 0x1 PUSH0 CALLER PUSH20 0xFFFFFFFFFFFFFFFFFFFFFFFFFFFFFFFFFFFFFFFF AND PUSH20 0xFFFFFFFFFFFFFFFFFFFFFFFFFFFFFFFFFFFFFFFF AND DUP2 MSTORE PUSH1 0x20 ADD SWAP1 DUP2 MSTORE PUSH1 0x20 ADD PUSH0 KECCAK256 DUP2 PUSH1 0x40 MLOAD PUSH2 0x84E SWAP2 SWAP1 PUSH2 0xD3F JUMP JUMPDEST SWAP1 DUP2 MSTORE PUSH1 0x20 ADD PUSH1 0x40 MLOAD DUP1 SWAP2 SUB SWAP1 KECCAK256 PUSH0 DUP1 DUP3 ADD PUSH0 PUSH2 0x86B SWAP2 SWAP1 PUSH2 0x8CD JUMP JUMPDEST PUSH1 0x1 DUP3 ADD PUSH0 PUSH2 0x87A SWAP2 SWAP1 PUSH2 0x8CD JUMP JUMPDEST POP POP CALLER PUSH20 0xFFFFFFFFFFFFFFFFFFFFFFFFFFFFFFFFFFFFFFFF AND PUSH32 0x62FA08023F4FCD46901D0EFC1EE730D9FCA49A3BFD61332D5F37946A80E41869 DUP3 PUSH1 0x40 MLOAD PUSH2 0x8C2 SWAP2 SWAP1 PUSH2 0x1027 JUMP JUMPDEST PUSH1 0x40 MLOAD DUP1 SWAP2 SUB SWAP1 LOG2 POP JUMP JUMPDEST POP DUP1 SLOAD PUSH2 0x8D9 SWAP1 PUSH2 0xD82 JUMP JUMPDEST PUSH0 DUP3 SSTORE DUP1 PUSH1 0x1F LT PUSH2 0x8EA JUMPI POP PUSH2 0x907 JUMP JUMPDEST PUSH1 0x1F ADD PUSH1 0x20 SWAP1 DIV SWAP1 PUSH0 MSTORE PUSH1 0x20 PUSH0 KECCAK256 SWAP1 DUP2 ADD SWAP1 PUSH2 0x906 SWAP2 SWAP1 PUSH2 0x90A JUMP JUMPDEST JUMPDEST POP JUMP JUMPDEST JUMPDEST DUP1 DUP3 GT ISZERO PUSH2 0x921 JUMPI PUSH0 DUP2 PUSH0 SWAP1 SSTORE POP PUSH1 0x1 ADD PUSH2 0x90B JUMP JUMPDEST POP SWAP1 JUMP JUMPDEST PUSH0 PUSH1 0x40 MLOAD SWAP1 POP SWAP1 JUMP JUMPDEST PUSH0 DUP1 REVERT JUMPDEST PUSH0 DUP1 REVERT JUMPDEST PUSH0 PUSH20 0xFFFFFFFFFFFFFFFFFFFFFFFFFFFFFFFFFFFFFFFF DUP3 AND SWAP1 POP SWAP2 SWAP1 POP JUMP JUMPDEST PUSH0 PUSH2 0x95F DUP3 PUSH2 0x936 JUMP JUMPDEST SWAP1 POP SWAP2 SWAP1 POP JUMP JUMPDEST PUSH2 0x96F DUP2 PUSH2 0x955 JUMP JUMPDEST DUP2 EQ PUSH2 0x979 JUMPI PUSH0 DUP1 REVERT JUMPDEST POP JUMP JUMPDEST PUSH0 DUP2 CALLDATALOAD SWAP1 POP PUSH2 0x98A DUP2 PUSH2 0x966 JUMP JUMPDEST SWAP3 SWAP2 POP POP JUMP JUMPDEST PUSH0 PUSH1 0x20 DUP3 DUP5 SUB SLT ISZERO PUSH2 0x9A5 JUMPI PUSH2 0x9A4 PUSH2 0x92E JUMP JUMPDEST JUMPDEST PUSH0 PUSH2 0x9B2 DUP5 DUP3 DUP6 ADD PUSH2 0x97C JUMP JUMPDEST SWAP2 POP POP SWAP3 SWAP2 POP POP JUMP JUMPDEST PUSH0 DUP1 REVERT JUMPDEST PUSH0 DUP1 REVERT JUMPDEST PUSH0 PUSH1 0x1F NOT PUSH1 0x1F DUP4 ADD AND SWAP1 POP SWAP2 SWAP1 POP JUMP JUMPDEST PUSH32 0x4E487B7100000000000000000000000000000000000000000000000000000000 PUSH0 MSTORE PUSH1 0x41 PUSH1 0x4 MSTORE PUSH1 0x24 PUSH0 REVERT JUMPDEST PUSH2 0xA09 DUP3 PUSH2 0x9C3 JUMP JUMPDEST DUP2 ADD DUP2 DUP2 LT PUSH8 0xFFFFFFFFFFFFFFFF DUP3 GT OR ISZERO PUSH2 0xA28 JUMPI PUSH2 0xA27 PUSH2 0x9D3 JUMP JUMPDEST JUMPDEST DUP1 PUSH1 0x40 MSTORE POP POP POP JUMP JUMPDEST PUSH0 PUSH2 0xA3A PUSH2 0x925 JUMP JUMPDEST SWAP1 POP PUSH2 0xA46 DUP3 DUP3 PUSH2 0xA00 JUMP JUMPDEST SWAP2 SWAP1 POP JUMP JUMPDEST PUSH0 PUSH8 0xFFFFFFFFFFFFFFFF DUP3 GT ISZERO PUSH2 0xA65 JUMPI PUSH2 0xA64 PUSH2 0x9D3 JUMP JUMPDEST JUMPDEST PUSH2 0xA6E DUP3 PUSH2 0x9C3 JUMP JUMPDEST SWAP1 POP PUSH1 0x20 DUP2 ADD SWAP1 POP SWAP2 SWAP1 POP JUMP JUMPDEST DUP3 DUP2 DUP4 CALLDATACOPY PUSH0 DUP4 DUP4 ADD MSTORE POP POP POP JUMP JUMPDEST PUSH0 PUSH2 0xA9B PUSH2 0xA96 DUP5 PUSH2 0xA4B JUMP JUMPDEST PUSH2 0xA31 JUMP JUMPDEST SWAP1 POP DUP3 DUP2 MSTORE PUSH1 0x20 DUP2 ADD DUP5 DUP5 DUP5 ADD GT ISZERO PUSH2 0xAB7 JUMPI PUSH2 0xAB6 PUSH2 0x9BF JUMP JUMPDEST JUMPDEST PUSH2 0xAC2 DUP5 DUP3 DUP6 PUSH2 0xA7B JUMP JUMPDEST POP SWAP4 SWAP3 POP POP POP JUMP JUMPDEST PUSH0 DUP3 PUSH1 0x1F DUP4 ADD SLT PUSH2 0xADE JUMPI PUSH2 0xADD PUSH2 0x9BB JUMP JUMPDEST JUMPDEST DUP2 CALLDATALOAD PUSH2 0xAEE DUP5 DUP3 PUSH1 0x20 DUP7 ADD PUSH2 0xA89 JUMP JUMPDEST SWAP2 POP POP SWAP3 SWAP2 POP POP JUMP JUMPDEST PUSH0 DUP1 PUSH0 PUSH1 0x60 DUP5 DUP7 SUB SLT ISZERO PUSH2 0xB0E JUMPI PUSH2 0xB0D PUSH2 0x92E JUMP JUMPDEST JUMPDEST PUSH0 DUP5 ADD CALLDATALOAD PUSH8 0xFFFFFFFFFFFFFFFF DUP2 GT ISZERO PUSH2 0xB2B JUMPI PUSH2 0xB2A PUSH2 0x932 JUMP JUMPDEST JUMPDEST PUSH2 0xB37 DUP7 DUP3 DUP8 ADD PUSH2 0xACA JUMP JUMPDEST SWAP4 POP POP PUSH1 0x20 DUP5 ADD CALLDATALOAD PUSH8 0xFFFFFFFFFFFFFFFF DUP2 GT ISZERO PUSH2 0xB58 JUMPI PUSH2 0xB57 PUSH2 0x932 JUMP JUMPDEST JUMPDEST PUSH2 0xB64 DUP7 DUP3 DUP8 ADD PUSH2 0xACA JUMP JUMPDEST SWAP3 POP POP PUSH1 0x40 DUP5 ADD CALLDATALOAD PUSH8 0xFFFFFFFFFFFFFFFF DUP2 GT ISZERO PUSH2 0xB85 JUMPI PUSH2 0xB84 PUSH2 0x932 JUMP JUMPDEST JUMPDEST PUSH2 0xB91 DUP7 DUP3 DUP8 ADD PUSH2 0xACA JUMP JUMPDEST SWAP2 POP POP SWAP3 POP SWAP3 POP SWAP3 JUMP JUMPDEST PUSH0 PUSH1 0x20 DUP3 DUP5 SUB SLT ISZERO PUSH2 0xBB0 JUMPI PUSH2 0xBAF PUSH2 0x92E JUMP JUMPDEST JUMPDEST PUSH0 DUP3 ADD CALLDATALOAD PUSH8 0xFFFFFFFFFFFFFFFF DUP2 GT ISZERO PUSH2 0xBCD JUMPI PUSH2 0xBCC PUSH2 0x932 JUMP JUMPDEST JUMPDEST PUSH2 0xBD9 DUP5 DUP3 DUP6 ADD PUSH2 0xACA JUMP JUMPDEST SWAP2 POP POP SWAP3 SWAP2 POP POP JUMP JUMPDEST PUSH0 DUP2 MLOAD SWAP1 POP SWAP2 SWAP1 POP JUMP JUMPDEST PUSH0 DUP3 DUP3 MSTORE PUSH1 0x20 DUP3 ADD SWAP1 POP SWAP3 SWAP2 POP POP JUMP JUMPDEST DUP3 DUP2 DUP4 MCOPY PUSH0 DUP4 DUP4 ADD MSTORE POP POP POP JUMP JUMPDEST PUSH0 PUSH2 0xC14 DUP3 PUSH2 0xBE2 JUMP JUMPDEST PUSH2 0xC1E DUP2 DUP6 PUSH2 0xBEC JUMP JUMPDEST SWAP4 POP PUSH2 0xC2E DUP2 DUP6 PUSH1 0x20 DUP7 ADD PUSH2 0xBFC JUMP JUMPDEST PUSH2 0xC37 DUP2 PUSH2 0x9C3 JUMP JUMPDEST DUP5 ADD SWAP2 POP POP SWAP3 SWAP2 POP POP JUMP JUMPDEST PUSH0 PUSH1 0x40 DUP3 ADD SWAP1 POP DUP2 DUP2 SUB PUSH0 DUP4 ADD MSTORE PUSH2 0xC5A DUP2 DUP6 PUSH2 0xC0A JUMP JUMPDEST SWAP1 POP DUP2 DUP2 SUB PUSH1 0x20 DUP4 ADD MSTORE PUSH2 0xC6E DUP2 DUP5 PUSH2 0xC0A JUMP JUMPDEST SWAP1 POP SWAP4 SWAP3 POP POP POP JUMP JUMPDEST PUSH32 0x4F6E6C7920636F6E7472616374206F776E65722063616E2063616C6C20746869 PUSH0 DUP3 ADD MSTORE PUSH32 0x732066756E6374696F6E00000000000000000000000000000000000000000000 PUSH1 0x20 DUP3 ADD MSTORE POP JUMP JUMPDEST PUSH0 PUSH2 0xCD1 PUSH1 0x2A DUP4 PUSH2 0xBEC JUMP JUMPDEST SWAP2 POP PUSH2 0xCDC DUP3 PUSH2 0xC77 JUMP JUMPDEST PUSH1 0x40 DUP3 ADD SWAP1 POP SWAP2 SWAP1 POP JUMP JUMPDEST PUSH0 PUSH1 0x20 DUP3 ADD SWAP1 POP DUP2 DUP2 SUB PUSH0 DUP4 ADD MSTORE PUSH2 0xCFE DUP2 PUSH2 0xCC5 JUMP JUMPDEST SWAP1 POP SWAP2 SWAP1 POP JUMP JUMPDEST PUSH0 DUP2 SWAP1 POP SWAP3 SWAP2 POP POP JUMP JUMPDEST PUSH0 PUSH2 0xD19 DUP3 PUSH2 0xBE2 JUMP JUMPDEST PUSH2 0xD23 DUP2 DUP6 PUSH2 0xD05 JUMP JUMPDEST SWAP4 POP PUSH2 0xD33 DUP2 DUP6 PUSH1 0x20 DUP7 ADD PUSH2 0xBFC JUMP JUMPDEST DUP1 DUP5 ADD SWAP2 POP POP SWAP3 SWAP2 POP POP JUMP JUMPDEST PUSH0 PUSH2 0xD4A DUP3 DUP5 PUSH2 0xD0F JUMP JUMPDEST SWAP2 POP DUP2 SWAP1 POP SWAP3 SWAP2 POP POP JUMP JUMPDEST PUSH32 0x4E487B7100000000000000000000000000000000000000000000000000000000 PUSH0 MSTORE PUSH1 0x22 PUSH1 0x4 MSTORE PUSH1 0x24 PUSH0 REVERT JUMPDEST PUSH0 PUSH1 0x2 DUP3 DIV SWAP1 POP PUSH1 0x1 DUP3 AND DUP1 PUSH2 0xD99 JUMPI PUSH1 0x7F DUP3 AND SWAP2 POP JUMPDEST PUSH1 0x20 DUP3 LT DUP2 SUB PUSH2 0xDAC JUMPI PUSH2 0xDAB PUSH2 0xD55 JUMP JUMPDEST JUMPDEST POP SWAP2 SWAP1 POP JUMP JUMPDEST PUSH0 DUP2 SWAP1 POP DUP2 PUSH0 MSTORE PUSH1 0x20 PUSH0 KECCAK256 SWAP1 POP SWAP2 SWAP1 POP JUMP JUMPDEST PUSH0 PUSH1 0x20 PUSH1 0x1F DUP4 ADD DIV SWAP1 POP SWAP2 SWAP1 POP JUMP JUMPDEST PUSH0 DUP3 DUP3 SHL SWAP1 POP SWAP3 SWAP2 POP POP JUMP JUMPDEST PUSH0 PUSH1 0x8 DUP4 MUL PUSH2 0xE0E PUSH32 0xFFFFFFFFFFFFFFFFFFFFFFFFFFFFFFFFFFFFFFFFFFFFFFFFFFFFFFFFFFFFFFFF DUP3 PUSH2 0xDD3 JUMP JUMPDEST PUSH2 0xE18 DUP7 DUP4 PUSH2 0xDD3 JUMP JUMPDEST SWAP6 POP DUP1 NOT DUP5 AND SWAP4 POP DUP1 DUP7 AND DUP5 OR SWAP3 POP POP POP SWAP4 SWAP3 POP POP POP JUMP JUMPDEST PUSH0 DUP2 SWAP1 POP SWAP2 SWAP1 POP JUMP JUMPDEST PUSH0 DUP2 SWAP1 POP SWAP2 SWAP1 POP JUMP JUMPDEST PUSH0 PUSH2 0xE5C PUSH2 0xE57 PUSH2 0xE52 DUP5 PUSH2 0xE30 JUMP JUMPDEST PUSH2 0xE39 JUMP JUMPDEST PUSH2 0xE30 JUMP JUMPDEST SWAP1 POP SWAP2 SWAP1 POP JUMP JUMPDEST PUSH0 DUP2 SWAP1 POP SWAP2 SWAP1 POP JUMP JUMPDEST PUSH2 0xE75 DUP4 PUSH2 0xE42 JUMP JUMPDEST PUSH2 0xE89 PUSH2 0xE81 DUP3 PUSH2 0xE63 JUMP JUMPDEST DUP5 DUP5 SLOAD PUSH2 0xDDF JUMP JUMPDEST DUP3 SSTORE POP POP POP POP JUMP JUMPDEST PUSH0 SWAP1 JUMP JUMPDEST PUSH2 0xE9D PUSH2 0xE91 JUMP JUMPDEST PUSH2 0xEA8 DUP2 DUP5 DUP5 PUSH2 0xE6C JUMP JUMPDEST POP POP POP JUMP JUMPDEST JUMPDEST DUP2 DUP2 LT ISZERO PUSH2 0xECB JUMPI PUSH2 0xEC0 PUSH0 DUP3 PUSH2 0xE95 JUMP JUMPDEST PUSH1 0x1 DUP2 ADD SWAP1 POP PUSH2 0xEAE JUMP JUMPDEST POP POP JUMP JUMPDEST PUSH1 0x1F DUP3 GT ISZERO PUSH2 0xF10 JUMPI PUSH2 0xEE1 DUP2 PUSH2 0xDB2 JUMP JUMPDEST PUSH2 0xEEA DUP5 PUSH2 0xDC4 JUMP JUMPDEST DUP2 ADD PUSH1 0x20 DUP6 LT ISZERO PUSH2 0xEF9 JUMPI DUP2 SWAP1 POP JUMPDEST PUSH2 0xF0D PUSH2 0xF05 DUP6 PUSH2 0xDC4 JUMP JUMPDEST DUP4 ADD DUP3 PUSH2 0xEAD JUMP JUMPDEST POP POP JUMPDEST POP POP POP JUMP JUMPDEST PUSH0 DUP3 DUP3 SHR SWAP1 POP SWAP3 SWAP2 POP POP JUMP JUMPDEST PUSH0 PUSH2 0xF30 PUSH0 NOT DUP5 PUSH1 0x8 MUL PUSH2 0xF15 JUMP JUMPDEST NOT DUP1 DUP4 AND SWAP2 POP POP SWAP3 SWAP2 POP POP JUMP JUMPDEST PUSH0 PUSH2 0xF48 DUP4 DUP4 PUSH2 0xF21 JUMP JUMPDEST SWAP2 POP DUP3 PUSH1 0x2 MUL DUP3 OR SWAP1 POP SWAP3 SWAP2 POP POP JUMP JUMPDEST PUSH2 0xF61 DUP3 PUSH2 0xBE2 JUMP JUMPDEST PUSH8 0xFFFFFFFFFFFFFFFF DUP2 GT ISZERO PUSH2 0xF7A JUMPI PUSH2 0xF79 PUSH2 0x9D3 JUMP JUMPDEST JUMPDEST PUSH2 0xF84 DUP3 SLOAD PUSH2 0xD82 JUMP JUMPDEST PUSH2 0xF8F DUP3 DUP3 DUP6 PUSH2 0xECF JUMP JUMPDEST PUSH0 PUSH1 0x20 SWAP1 POP PUSH1 0x1F DUP4 GT PUSH1 0x1 DUP2 EQ PUSH2 0xFC0 JUMPI PUSH0 DUP5 ISZERO PUSH2 0xFAE JUMPI DUP3 DUP8 ADD MLOAD SWAP1 POP JUMPDEST PUSH2 0xFB8 DUP6 DUP3 PUSH2 0xF3D JUMP JUMPDEST DUP7 SSTORE POP PUSH2 0x101F JUMP JUMPDEST PUSH1 0x1F NOT DUP5 AND PUSH2 0xFCE DUP7 PUSH2 0xDB2 JUMP JUMPDEST PUSH0 JUMPDEST DUP3 DUP2 LT ISZERO PUSH2 0xFF5 JUMPI DUP5 DUP10 ADD MLOAD DUP3 SSTORE PUSH1 0x1 DUP3 ADD SWAP2 POP PUSH1 0x20 DUP6 ADD SWAP5 POP PUSH1 0x20 DUP2 ADD SWAP1 POP PUSH2 0xFD0 JUMP JUMPDEST DUP7 DUP4 LT ISZERO PUSH2 0x1012 JUMPI DUP5 DUP10 ADD MLOAD PUSH2 0x100E PUSH1 0x1F DUP10 AND DUP3 PUSH2 0xF21 JUMP JUMPDEST DUP4 SSTORE POP JUMPDEST PUSH1 0x1 PUSH1 0x2 DUP9 MUL ADD DUP9 SSTORE POP POP POP JUMPDEST POP POP POP POP POP POP JUMP JUMPDEST PUSH0 PUSH1 0x20 DUP3 ADD SWAP1 POP DUP2 DUP2 SUB PUSH0 DUP4 ADD MSTORE PUSH2 0x103F DUP2 DUP5 PUSH2 0xC0A JUMP JUMPDEST SWAP1 POP SWAP3 SWAP2 POP POP JUMP JUMPDEST PUSH32 0x4E6F2063726564656E7469616C7320666F756E6420666F72207468697320706C PUSH0 DUP3 ADD MSTORE PUSH32 0x6174666F726D0000000000000000000000000000000000000000000000000000 PUSH1 0x20 DUP3 ADD MSTORE POP JUMP JUMPDEST PUSH0 PUSH2 0x10A1 PUSH1 0x26 DUP4 PUSH2 0xBEC JUMP JUMPDEST SWAP2 POP PUSH2 0x10AC DUP3 PUSH2 0x1047 JUMP JUMPDEST PUSH1 0x40 DUP3 ADD SWAP1 POP SWAP2 SWAP1 POP JUMP JUMPDEST PUSH0 PUSH1 0x20 DUP3 ADD SWAP1 POP DUP2 DUP2 SUB PUSH0 DUP4 ADD MSTORE PUSH2 0x10CE DUP2 PUSH2 0x1095 JUMP JUMPDEST SWAP1 POP SWAP2 SWAP1 POP JUMP JUMPDEST PUSH32 0x4F6E6C792061646D696E73206F72206F776E65722063616E2063616C6C207468 PUSH0 DUP3 ADD MSTORE PUSH32 0x69732066756E6374696F6E000000000000000000000000000000000000000000 PUSH1 0x20 DUP3 ADD MSTORE POP JUMP JUMPDEST PUSH0 PUSH2 0x112F PUSH1 0x2B DUP4 PUSH2 0xBEC JUMP JUMPDEST SWAP2 POP PUSH2 0x113A DUP3 PUSH2 0x10D5 JUMP JUMPDEST PUSH1 0x40 DUP3 ADD SWAP1 POP SWAP2 SWAP1 POP JUMP JUMPDEST PUSH0 PUSH1 0x20 DUP3 ADD SWAP1 POP DUP2 DUP2 SUB PUSH0 DUP4 ADD MSTORE PUSH2 0x115C DUP2 PUSH2 0x1123 JUMP JUMPDEST SWAP1 POP SWAP2 SWAP1 POP JUMP INVALID LOG2 PUSH5 0x6970667358 0x22 SLT KECCAK256 PUSH7 0xE0CA2C7415B00C SMOD PUSH25 0xB721255F10443B19A8DBC0DC3CA4EA7F2967F433B9EE64736F PUSH13 0x634300081A0033000000000000 "
				},
				"gasEstimates": {
					"creation": {
						"codeDepositCost": "901000",
						"executionCost": "25198",
						"totalCost": "926198"
					},
					"external": {
						"addAdmin(address)": "28174",
						"deleteCredential(string)": "infinite",
						"removeAdmin(address)": "28107",
						"retrieveCredential(string)": "infinite",
						"storeCredential(string,string,string)": "infinite"
					}
				},
				"methodIdentifiers": {
					"addAdmin(address)": "70480275",
					"deleteCredential(string)": "f2e8c725",
					"removeAdmin(address)": "1785f53c",
					"retrieveCredential(string)": "59737bfc",
					"storeCredential(string,string,string)": "22aa9e97"
				}
			},
			"storageLayout": {
				"storage": [
					{
						"astId": 8,
						"contract": "contracts/PasswordVault.sol:PasswordVault",
						"label": "owner",
						"offset": 0,
						"slot": "0",
						"type": "t_address"
					},
					{
						"astId": 15,
						"contract": "contracts/PasswordVault.sol:PasswordVault",
						"label": "vaults",
						"offset": 0,
						"slot": "1",
						"type": "t_mapping(t_address,t_mapping(t_string_memory_ptr,t_struct(Credential)6_storage))"
					},
					{
						"astId": 19,
						"contract": "contracts/PasswordVault.sol:PasswordVault",
						"label": "admins",
						"offset": 0,
						"slot": "2",
						"type": "t_mapping(t_address,t_bool)"
					}
				],
				"types": {
					"t_address": {
						"encoding": "inplace",
						"label": "address",
						"numberOfBytes": "20"
					},
					"t_bool": {
						"encoding": "inplace",
						"label": "bool",
						"numberOfBytes": "1"
					},
					"t_mapping(t_address,t_bool)": {
						"encoding": "mapping",
						"key": "t_address",
						"label": "mapping(address => bool)",
						"numberOfBytes": "32",
						"value": "t_bool"
					},
					"t_mapping(t_address,t_mapping(t_string_memory_ptr,t_struct(Credential)6_storage))": {
						"encoding": "mapping",
						"key": "t_address",
						"label": "mapping(address => mapping(string => struct PasswordVault.Credential))",
						"numberOfBytes": "32",
						"value": "t_mapping(t_string_memory_ptr,t_struct(Credential)6_storage)"
					},
					"t_mapping(t_string_memory_ptr,t_struct(Credential)6_storage)": {
						"encoding": "mapping",
						"key": "t_string_memory_ptr",
						"label": "mapping(string => struct PasswordVault.Credential)",
						"numberOfBytes": "32",
						"value": "t_struct(Credential)6_storage"
					},
					"t_string_memory_ptr": {
						"encoding": "bytes",
						"label": "string",
						"numberOfBytes": "32"
					},
					"t_string_storage": {
						"encoding": "bytes",
						"label": "string",
						"numberOfBytes": "32"
					},
					"t_struct(Credential)6_storage": {
						"encoding": "inplace",
						"label": "struct PasswordVault.Credential",
						"members": [
							{
								"astId": 3,
								"contract": "contracts/PasswordVault.sol:PasswordVault",
								"label": "username",
								"offset": 0,
								"slot": "0",
								"type": "t_string_storage"
							},
							{
								"astId": 5,
								"contract": "contracts/PasswordVault.sol:PasswordVault",
								"label": "encryptedPassword",
								"offset": 0,
								"slot": "1",
								"type": "t_string_storage"
							}
						],
						"numberOfBytes": "64"
					}
				}
			},
			"userdoc": {
				"kind": "user",
				"methods": {},
				"version": 1
			}
		}
	}
}